{
	"data": {
		"bytecode": {
			"linkReferences": {},
			"object": "608060405234801561000f575f80fd5b50335f806101000a81548173ffffffffffffffffffffffffffffffffffffffff021916908373ffffffffffffffffffffffffffffffffffffffff1602179055506124f78061005c5f395ff3fe608060405234801561000f575f80fd5b5060043610610086575f3560e01c8063565972f611610059578063565972f6146101295780636cad746f14610159578063d22f44b714610175578063d6febb18146101aa57610086565b8063077feeaa1461008a57806310046c91146100bc578063261baa5a146100ef5780633107b2fb1461010d575b5f80fd5b6100a4600480360381019061009f919061139b565b6101c6565b6040516100b39392919061145f565b60405180910390f35b6100d660048036038101906100d191906114f7565b610317565b6040516100e694939291906115cd565b60405180910390f35b6100f7610653565b604051610104919061162c565b60405180910390f35b6101276004803603810190610122919061139b565b610676565b005b610143600480360381019061013e9190611678565b6107b3565b60405161015091906116c5565b60405180910390f35b610173600480360381019061016e919061180a565b6107f4565b005b61018f600480360381019061018a91906114f7565b610993565b6040516101a196959493929190611a10565b60405180910390f35b6101c460048036038101906101bf9190611c65565b610e7c565b005b6001602052805f5260405f205f91509050805f0180546101e590611d66565b80601f016020809104026020016040519081016040528092919081815260200182805461021190611d66565b801561025c5780601f106102335761010080835404028352916020019161025c565b820191905f5260205f20905b81548152906001019060200180831161023f57829003601f168201915b50505050509080600101805461027190611d66565b80601f016020809104026020016040519081016040528092919081815260200182805461029d90611d66565b80156102e85780601f106102bf576101008083540402835291602001916102e8565b820191905f5260205f20905b8154815290600101906020018083116102cb57829003601f168201915b505050505090806002015f9054906101000a900473ffffffffffffffffffffffffffffffffffffffff16905083565b6002602052805f5260405f205f91509050805f01805461033690611d66565b80601f016020809104026020016040519081016040528092919081815260200182805461036290611d66565b80156103ad5780601f10610384576101008083540402835291602001916103ad565b820191905f5260205f20905b81548152906001019060200180831161039057829003601f168201915b5050505050908060010180546103c290611d66565b80601f01602080910402602001604051908101604052809291908181526020018280546103ee90611d66565b80156104395780601f1061041057610100808354040283529160200191610439565b820191905f5260205f20905b81548152906001019060200180831161041c57829003601f168201915b50505050509080600201805461044e90611d66565b80601f016020809104026020016040519081016040528092919081815260200182805461047a90611d66565b80156104c55780601f1061049c576101008083540402835291602001916104c5565b820191905f5260205f20905b8154815290600101906020018083116104a857829003601f168201915b505050505090806003016040518060600160405290815f820180546104e990611d66565b80601f016020809104026020016040519081016040528092919081815260200182805461051590611d66565b80156105605780601f1061053757610100808354040283529160200191610560565b820191905f5260205f20905b81548152906001019060200180831161054357829003601f168201915b5050505050815260200160018201805461057990611d66565b80601f01602080910402602001604051908101604052809291908181526020018280546105a590611d66565b80156105f05780601f106105c7576101008083540402835291602001916105f0565b820191905f5260205f20905b8154815290600101906020018083116105d357829003601f168201915b50505050508152602001600282015f9054906101000a900473ffffffffffffffffffffffffffffffffffffffff1673ffffffffffffffffffffffffffffffffffffffff1673ffffffffffffffffffffffffffffffffffffffff1681525050905084565b5f8054906101000a900473ffffffffffffffffffffffffffffffffffffffff1681565b5f8054906101000a900473ffffffffffffffffffffffffffffffffffffffff1673ffffffffffffffffffffffffffffffffffffffff163373ffffffffffffffffffffffffffffffffffffffff1614610703576040517f08c379a00000000000000000000000000000000000000000000000000000000081526004016106fa90611e06565b60405180910390fd5b5f73ffffffffffffffffffffffffffffffffffffffff168173ffffffffffffffffffffffffffffffffffffffff1603610771576040517f08c379a000000000000000000000000000000000000000000000000000000000815260040161076890611e6e565b60405180910390fd5b805f806101000a81548173ffffffffffffffffffffffffffffffffffffffff021916908373ffffffffffffffffffffffffffffffffffffffff16021790555050565b6003602052815f5260405f2081815481106107cc575f80fd5b905f5260205f209060049182820401919006600802915091509054906101000a900460c01b81565b5f8054906101000a900473ffffffffffffffffffffffffffffffffffffffff1673ffffffffffffffffffffffffffffffffffffffff163373ffffffffffffffffffffffffffffffffffffffff1614610881576040517f08c379a000000000000000000000000000000000000000000000000000000000815260040161087890611e06565b60405180910390fd5b5f60015f8373ffffffffffffffffffffffffffffffffffffffff1673ffffffffffffffffffffffffffffffffffffffff1681526020019081526020015f20905083815f0190816108d19190612029565b50828160010190816108e39190612029565b5081816002015f6101000a81548173ffffffffffffffffffffffffffffffffffffffff021916908373ffffffffffffffffffffffffffffffffffffffff1602179055508173ffffffffffffffffffffffffffffffffffffffff168273ffffffffffffffffffffffffffffffffffffffff167fa277afe5421119083df40c6301966f9165c4be848a2d53e63b88f31a4a1f1cd486866040516109859291906120f8565b60405180910390a350505050565b60608060606109a0611186565b6060805f60025f8977ffffffffffffffffffffffffffffffffffffffffffffffff191677ffffffffffffffffffffffffffffffffffffffffffffffff191681526020019081526020015f209050805f018160010182600201836003018460060185600701858054610a1090611d66565b80601f0160208091040260200160405190810160405280929190818152602001828054610a3c90611d66565b8015610a875780601f10610a5e57610100808354040283529160200191610a87565b820191905f5260205f20905b815481529060010190602001808311610a6a57829003601f168201915b50505050509550848054610a9a90611d66565b80601f0160208091040260200160405190810160405280929190818152602001828054610ac690611d66565b8015610b115780601f10610ae857610100808354040283529160200191610b11565b820191905f5260205f20905b815481529060010190602001808311610af457829003601f168201915b50505050509450838054610b2490611d66565b80601f0160208091040260200160405190810160405280929190818152602001828054610b5090611d66565b8015610b9b5780601f10610b7257610100808354040283529160200191610b9b565b820191905f5260205f20905b815481529060010190602001808311610b7e57829003601f168201915b50505050509350826040518060600160405290815f82018054610bbd90611d66565b80601f0160208091040260200160405190810160405280929190818152602001828054610be990611d66565b8015610c345780601f10610c0b57610100808354040283529160200191610c34565b820191905f5260205f20905b815481529060010190602001808311610c1757829003601f168201915b50505050508152602001600182018054610c4d90611d66565b80601f0160208091040260200160405190810160405280929190818152602001828054610c7990611d66565b8015610cc45780601f10610c9b57610100808354040283529160200191610cc4565b820191905f5260205f20905b815481529060010190602001808311610ca757829003601f168201915b50505050508152602001600282015f9054906101000a900473ffffffffffffffffffffffffffffffffffffffff1673ffffffffffffffffffffffffffffffffffffffff1673ffffffffffffffffffffffffffffffffffffffff1681525050925081805480602002602001604051908101604052809291908181526020015f905b82821015610dec578382905f5260205f20018054610d6190611d66565b80601f0160208091040260200160405190810160405280929190818152602001828054610d8d90611d66565b8015610dd85780601f10610daf57610100808354040283529160200191610dd8565b820191905f5260205f20905b815481529060010190602001808311610dbb57829003601f168201915b505050505081526020019060010190610d44565b50505050915080805480602002602001604051908101604052809291908181526020018280548015610e5f57602002820191905f5260205f20905f905b82829054906101000a900460ff1660ff16815260200190600101906020825f01049283019260010382029150808411610e295790505b505050505090509650965096509650965096505091939550919395565b8051825114610ec0576040517f08c379a0000000000000000000000000000000000000000000000000000000008152600401610eb79061219d565b60405180910390fd5b5f60015f3373ffffffffffffffffffffffffffffffffffffffff1673ffffffffffffffffffffffffffffffffffffffff1681526020019081526020015f2090505f610f09611155565b90505f60025f8377ffffffffffffffffffffffffffffffffffffffffffffffff191677ffffffffffffffffffffffffffffffffffffffffffffffff191681526020019081526020015f20905086815f019081610f659190612029565b5085816001019081610f779190612029565b5082600101816002019081610f8c91906121e2565b5082816003015f8201815f019081610fa491906122dc565b5060018201816001019081610fb991906122dc565b50600282015f9054906101000a900473ffffffffffffffffffffffffffffffffffffffff16816002015f6101000a81548173ffffffffffffffffffffffffffffffffffffffff021916908373ffffffffffffffffffffffffffffffffffffffff1602179055509050508481600601908051906020019061103a9291906111bc565b5083816007019080519060200190611053929190611213565b5060035f3373ffffffffffffffffffffffffffffffffffffffff1673ffffffffffffffffffffffffffffffffffffffff1681526020019081526020015f2082908060018154018082558091505060019003905f5260205f2090600491828204019190066008029091909190916101000a81548167ffffffffffffffff021916908360c01c02179055508177ffffffffffffffffffffffffffffffffffffffffffffffff19163373ffffffffffffffffffffffffffffffffffffffff167f4e6130e71b8b4359dca253514e4dff9548d42a5642fdf244e5ebbbc4a02148b28989898960405161114494939291906123c1565b60405180910390a350505050505050565b5f42443360405160200161116b93929190612485565b60405160208183030381529060405280519060200120905090565b604051806060016040528060608152602001606081526020015f73ffffffffffffffffffffffffffffffffffffffff1681525090565b828054828255905f5260205f20908101928215611202579160200282015b828111156112015782518290816111f19190612029565b50916020019190600101906111da565b5b50905061120f91906112b5565b5090565b828054828255905f5260205f2090601f016020900481019282156112a4579160200282015f5b8382111561127657835183826101000a81548160ff021916908360ff16021790555092602001926001016020815f01049283019260010302611239565b80156112a25782816101000a81549060ff02191690556001016020815f01049283019260010302611276565b505b5090506112b191906112d8565b5090565b5b808211156112d4575f81816112cb91906112f3565b506001016112b6565b5090565b5b808211156112ef575f815f9055506001016112d9565b5090565b5080546112ff90611d66565b5f825580601f10611310575061132d565b601f0160209004905f5260205f209081019061132c91906112d8565b5b50565b5f604051905090565b5f80fd5b5f80fd5b5f73ffffffffffffffffffffffffffffffffffffffff82169050919050565b5f61136a82611341565b9050919050565b61137a81611360565b8114611384575f80fd5b50565b5f8135905061139581611371565b92915050565b5f602082840312156113b0576113af611339565b5b5f6113bd84828501611387565b91505092915050565b5f81519050919050565b5f82825260208201905092915050565b5f5b838110156113fd5780820151818401526020810190506113e2565b5f8484015250505050565b5f601f19601f8301169050919050565b5f611422826113c6565b61142c81856113d0565b935061143c8185602086016113e0565b61144581611408565b840191505092915050565b61145981611360565b82525050565b5f6060820190508181035f8301526114778186611418565b9050818103602083015261148b8185611418565b905061149a6040830184611450565b949350505050565b5f7fffffffffffffffff00000000000000000000000000000000000000000000000082169050919050565b6114d6816114a2565b81146114e0575f80fd5b50565b5f813590506114f1816114cd565b92915050565b5f6020828403121561150c5761150b611339565b5b5f611519848285016114e3565b91505092915050565b5f82825260208201905092915050565b5f61153c826113c6565b6115468185611522565b93506115568185602086016113e0565b61155f81611408565b840191505092915050565b61157381611360565b82525050565b5f606083015f8301518482035f8601526115938282611532565b915050602083015184820360208601526115ad8282611532565b91505060408301516115c2604086018261156a565b508091505092915050565b5f6080820190508181035f8301526115e58187611418565b905081810360208301526115f98186611418565b9050818103604083015261160d8185611418565b905081810360608301526116218184611579565b905095945050505050565b5f60208201905061163f5f830184611450565b92915050565b5f819050919050565b61165781611645565b8114611661575f80fd5b50565b5f813590506116728161164e565b92915050565b5f806040838503121561168e5761168d611339565b5b5f61169b85828601611387565b92505060206116ac85828601611664565b9150509250929050565b6116bf816114a2565b82525050565b5f6020820190506116d85f8301846116b6565b92915050565b5f80fd5b5f80fd5b7f4e487b71000000000000000000000000000000000000000000000000000000005f52604160045260245ffd5b61171c82611408565b810181811067ffffffffffffffff8211171561173b5761173a6116e6565b5b80604052505050565b5f61174d611330565b90506117598282611713565b919050565b5f67ffffffffffffffff821115611778576117776116e6565b5b61178182611408565b9050602081019050919050565b828183375f83830152505050565b5f6117ae6117a98461175e565b611744565b9050828152602081018484840111156117ca576117c96116e2565b5b6117d584828561178e565b509392505050565b5f82601f8301126117f1576117f06116de565b5b813561180184826020860161179c565b91505092915050565b5f805f6060848603121561182157611820611339565b5b5f84013567ffffffffffffffff81111561183e5761183d61133d565b5b61184a868287016117dd565b935050602084013567ffffffffffffffff81111561186b5761186a61133d565b5b611877868287016117dd565b925050604061188886828701611387565b9150509250925092565b5f81519050919050565b5f82825260208201905092915050565b5f819050602082019050919050565b5f6118c68383611532565b905092915050565b5f602082019050919050565b5f6118e482611892565b6118ee818561189c565b935083602082028501611900856118ac565b805f5b8581101561193b578484038952815161191c85826118bb565b9450611927836118ce565b925060208a01995050600181019050611903565b50829750879550505050505092915050565b5f81519050919050565b5f82825260208201905092915050565b5f819050602082019050919050565b5f60ff82169050919050565b61198b81611976565b82525050565b5f61199c8383611982565b60208301905092915050565b5f602082019050919050565b5f6119be8261194d565b6119c88185611957565b93506119d383611967565b805f5b83811015611a035781516119ea8882611991565b97506119f5836119a8565b9250506001810190506119d6565b5085935050505092915050565b5f60c0820190508181035f830152611a288189611418565b90508181036020830152611a3c8188611418565b90508181036040830152611a508187611418565b90508181036060830152611a648186611579565b90508181036080830152611a7881856118da565b905081810360a0830152611a8c81846119b4565b9050979650505050505050565b5f67ffffffffffffffff821115611ab357611ab26116e6565b5b602082029050602081019050919050565b5f80fd5b5f611ada611ad584611a99565b611744565b90508083825260208201905060208402830185811115611afd57611afc611ac4565b5b835b81811015611b4457803567ffffffffffffffff811115611b2257611b216116de565b5b808601611b2f89826117dd565b85526020850194505050602081019050611aff565b5050509392505050565b5f82601f830112611b6257611b616116de565b5b8135611b72848260208601611ac8565b91505092915050565b5f67ffffffffffffffff821115611b9557611b946116e6565b5b602082029050602081019050919050565b611baf81611976565b8114611bb9575f80fd5b50565b5f81359050611bca81611ba6565b92915050565b5f611be2611bdd84611b7b565b611744565b90508083825260208201905060208402830185811115611c0557611c04611ac4565b5b835b81811015611c2e5780611c1a8882611bbc565b845260208401935050602081019050611c07565b5050509392505050565b5f82601f830112611c4c57611c4b6116de565b5b8135611c5c848260208601611bd0565b91505092915050565b5f805f8060808587031215611c7d57611c7c611339565b5b5f85013567ffffffffffffffff811115611c9a57611c9961133d565b5b611ca6878288016117dd565b945050602085013567ffffffffffffffff811115611cc757611cc661133d565b5b611cd3878288016117dd565b935050604085013567ffffffffffffffff811115611cf457611cf361133d565b5b611d0087828801611b4e565b925050606085013567ffffffffffffffff811115611d2157611d2061133d565b5b611d2d87828801611c38565b91505092959194509250565b7f4e487b71000000000000000000000000000000000000000000000000000000005f52602260045260245ffd5b5f6002820490506001821680611d7d57607f821691505b602082108103611d9057611d8f611d39565b5b50919050565b7f53616d6f20766c61736e696b206d6f7a652070726973747570697469206f766f5f8201527f6a2066756e6b63696a6900000000000000000000000000000000000000000000602082015250565b5f611df0602a836113d0565b9150611dfb82611d96565b604082019050919050565b5f6020820190508181035f830152611e1d81611de4565b9050919050565b7f4e6576617a65636120616472657361206e6f766f6720766c61736e696b6100005f82015250565b5f611e58601e836113d0565b9150611e6382611e24565b602082019050919050565b5f6020820190508181035f830152611e8581611e4c565b9050919050565b5f819050815f5260205f209050919050565b5f6020601f8301049050919050565b5f82821b905092915050565b5f60088302611ee87fffffffffffffffffffffffffffffffffffffffffffffffffffffffffffffffff82611ead565b611ef28683611ead565b95508019841693508086168417925050509392505050565b5f819050919050565b5f611f2d611f28611f2384611645565b611f0a565b611645565b9050919050565b5f819050919050565b611f4683611f13565b611f5a611f5282611f34565b848454611eb9565b825550505050565b5f90565b611f6e611f62565b611f79818484611f3d565b505050565b5b81811015611f9c57611f915f82611f66565b600181019050611f7f565b5050565b601f821115611fe157611fb281611e8c565b611fbb84611e9e565b81016020851015611fca578190505b611fde611fd685611e9e565b830182611f7e565b50505b505050565b5f82821c905092915050565b5f6120015f1984600802611fe6565b1980831691505092915050565b5f6120198383611ff2565b9150826002028217905092915050565b612032826113c6565b67ffffffffffffffff81111561204b5761204a6116e6565b5b6120558254611d66565b612060828285611fa0565b5f60209050601f831160018114612091575f841561207f578287015190505b612089858261200e565b8655506120f0565b601f19841661209f86611e8c565b5f5b828110156120c6578489015182556001820191506020850194506020810190506120a1565b868310156120e357848901516120df601f891682611ff2565b8355505b6001600288020188555050505b505050505050565b5f6040820190508181035f8301526121108185611418565b905081810360208301526121248184611418565b90509392505050565b7f4e65697370726176616e20756e6f733a20707265646d6574692069206f636a655f8201527f6e65206d6f72616a7520696d61746920697374752064757a696e750000000000602082015250565b5f612187603b836113d0565b91506121928261212d565b604082019050919050565b5f6020820190508181035f8301526121b48161217b565b9050919050565b5f815490506121c981611d66565b9050919050565b5f819050815f5260205f209050919050565b8181036121f05750506122c5565b6121f9826121bb565b67ffffffffffffffff811115612212576122116116e6565b5b61221c8254611d66565b612227828285611fa0565b5f601f831160018114612254575f8415612242578287015490505b61224c858261200e565b8655506122be565b601f198416612262876121d0565b965061226d86611e8c565b5f5b828110156122945784890154825560018201915060018501945060208101905061226f565b868310156122b157848901546122ad601f891682611ff2565b8355505b6001600288020188555050505b5050505050505b565b5f815490506122d581611d66565b9050919050565b8181036122ea5750506123bf565b6122f3826122c7565b67ffffffffffffffff81111561230c5761230b6116e6565b5b6123168254611d66565b612321828285611fa0565b5f601f83116001811461234e575f841561233c578287015490505b612346858261200e565b8655506123b8565b601f19841661235c87611e8c565b965061236786611e8c565b5f5b8281101561238e57848901548255600182019150600185019450602081019050612369565b868310156123ab57848901546123a7601f891682611ff2565b8355505b6001600288020188555050505b5050505050505b565b5f6080820190508181035f8301526123d98187611418565b905081810360208301526123ed8186611418565b9050818103604083015261240181856118da565b9050818103606083015261241581846119b4565b905095945050505050565b5f819050919050565b61243a61243582611645565b612420565b82525050565b5f8160601b9050919050565b5f61245682612440565b9050919050565b5f6124678261244c565b9050919050565b61247f61247a82611360565b61245d565b82525050565b5f6124908286612429565b6020820191506124a08285612429565b6020820191506124b0828461246e565b60148201915081905094935050505056fea2646970667358221220e3aaf75a835b1a25c58169a16316b23cb86e5bb8634e25f83ade5201bd92a0e764736f6c63430008180033",
			"opcodes": "PUSH1 0x80 PUSH1 0x40 MSTORE CALLVALUE DUP1 ISZERO PUSH2 0xF JUMPI PUSH0 DUP1 REVERT JUMPDEST POP CALLER PUSH0 DUP1 PUSH2 0x100 EXP DUP2 SLOAD DUP2 PUSH20 0xFFFFFFFFFFFFFFFFFFFFFFFFFFFFFFFFFFFFFFFF MUL NOT AND SWAP1 DUP4 PUSH20 0xFFFFFFFFFFFFFFFFFFFFFFFFFFFFFFFFFFFFFFFF AND MUL OR SWAP1 SSTORE POP PUSH2 0x24F7 DUP1 PUSH2 0x5C PUSH0 CODECOPY PUSH0 RETURN INVALID PUSH1 0x80 PUSH1 0x40 MSTORE CALLVALUE DUP1 ISZERO PUSH2 0xF JUMPI PUSH0 DUP1 REVERT JUMPDEST POP PUSH1 0x4 CALLDATASIZE LT PUSH2 0x86 JUMPI PUSH0 CALLDATALOAD PUSH1 0xE0 SHR DUP1 PUSH4 0x565972F6 GT PUSH2 0x59 JUMPI DUP1 PUSH4 0x565972F6 EQ PUSH2 0x129 JUMPI DUP1 PUSH4 0x6CAD746F EQ PUSH2 0x159 JUMPI DUP1 PUSH4 0xD22F44B7 EQ PUSH2 0x175 JUMPI DUP1 PUSH4 0xD6FEBB18 EQ PUSH2 0x1AA JUMPI PUSH2 0x86 JUMP JUMPDEST DUP1 PUSH4 0x77FEEAA EQ PUSH2 0x8A JUMPI DUP1 PUSH4 0x10046C91 EQ PUSH2 0xBC JUMPI DUP1 PUSH4 0x261BAA5A EQ PUSH2 0xEF JUMPI DUP1 PUSH4 0x3107B2FB EQ PUSH2 0x10D JUMPI JUMPDEST PUSH0 DUP1 REVERT JUMPDEST PUSH2 0xA4 PUSH1 0x4 DUP1 CALLDATASIZE SUB DUP2 ADD SWAP1 PUSH2 0x9F SWAP2 SWAP1 PUSH2 0x139B JUMP JUMPDEST PUSH2 0x1C6 JUMP JUMPDEST PUSH1 0x40 MLOAD PUSH2 0xB3 SWAP4 SWAP3 SWAP2 SWAP1 PUSH2 0x145F JUMP JUMPDEST PUSH1 0x40 MLOAD DUP1 SWAP2 SUB SWAP1 RETURN JUMPDEST PUSH2 0xD6 PUSH1 0x4 DUP1 CALLDATASIZE SUB DUP2 ADD SWAP1 PUSH2 0xD1 SWAP2 SWAP1 PUSH2 0x14F7 JUMP JUMPDEST PUSH2 0x317 JUMP JUMPDEST PUSH1 0x40 MLOAD PUSH2 0xE6 SWAP5 SWAP4 SWAP3 SWAP2 SWAP1 PUSH2 0x15CD JUMP JUMPDEST PUSH1 0x40 MLOAD DUP1 SWAP2 SUB SWAP1 RETURN JUMPDEST PUSH2 0xF7 PUSH2 0x653 JUMP JUMPDEST PUSH1 0x40 MLOAD PUSH2 0x104 SWAP2 SWAP1 PUSH2 0x162C JUMP JUMPDEST PUSH1 0x40 MLOAD DUP1 SWAP2 SUB SWAP1 RETURN JUMPDEST PUSH2 0x127 PUSH1 0x4 DUP1 CALLDATASIZE SUB DUP2 ADD SWAP1 PUSH2 0x122 SWAP2 SWAP1 PUSH2 0x139B JUMP JUMPDEST PUSH2 0x676 JUMP JUMPDEST STOP JUMPDEST PUSH2 0x143 PUSH1 0x4 DUP1 CALLDATASIZE SUB DUP2 ADD SWAP1 PUSH2 0x13E SWAP2 SWAP1 PUSH2 0x1678 JUMP JUMPDEST PUSH2 0x7B3 JUMP JUMPDEST PUSH1 0x40 MLOAD PUSH2 0x150 SWAP2 SWAP1 PUSH2 0x16C5 JUMP JUMPDEST PUSH1 0x40 MLOAD DUP1 SWAP2 SUB SWAP1 RETURN JUMPDEST PUSH2 0x173 PUSH1 0x4 DUP1 CALLDATASIZE SUB DUP2 ADD SWAP1 PUSH2 0x16E SWAP2 SWAP1 PUSH2 0x180A JUMP JUMPDEST PUSH2 0x7F4 JUMP JUMPDEST STOP JUMPDEST PUSH2 0x18F PUSH1 0x4 DUP1 CALLDATASIZE SUB DUP2 ADD SWAP1 PUSH2 0x18A SWAP2 SWAP1 PUSH2 0x14F7 JUMP JUMPDEST PUSH2 0x993 JUMP JUMPDEST PUSH1 0x40 MLOAD PUSH2 0x1A1 SWAP7 SWAP6 SWAP5 SWAP4 SWAP3 SWAP2 SWAP1 PUSH2 0x1A10 JUMP JUMPDEST PUSH1 0x40 MLOAD DUP1 SWAP2 SUB SWAP1 RETURN JUMPDEST PUSH2 0x1C4 PUSH1 0x4 DUP1 CALLDATASIZE SUB DUP2 ADD SWAP1 PUSH2 0x1BF SWAP2 SWAP1 PUSH2 0x1C65 JUMP JUMPDEST PUSH2 0xE7C JUMP JUMPDEST STOP JUMPDEST PUSH1 0x1 PUSH1 0x20 MSTORE DUP1 PUSH0 MSTORE PUSH1 0x40 PUSH0 KECCAK256 PUSH0 SWAP2 POP SWAP1 POP DUP1 PUSH0 ADD DUP1 SLOAD PUSH2 0x1E5 SWAP1 PUSH2 0x1D66 JUMP JUMPDEST DUP1 PUSH1 0x1F ADD PUSH1 0x20 DUP1 SWAP2 DIV MUL PUSH1 0x20 ADD PUSH1 0x40 MLOAD SWAP1 DUP2 ADD PUSH1 0x40 MSTORE DUP1 SWAP3 SWAP2 SWAP1 DUP2 DUP2 MSTORE PUSH1 0x20 ADD DUP3 DUP1 SLOAD PUSH2 0x211 SWAP1 PUSH2 0x1D66 JUMP JUMPDEST DUP1 ISZERO PUSH2 0x25C JUMPI DUP1 PUSH1 0x1F LT PUSH2 0x233 JUMPI PUSH2 0x100 DUP1 DUP4 SLOAD DIV MUL DUP4 MSTORE SWAP2 PUSH1 0x20 ADD SWAP2 PUSH2 0x25C JUMP JUMPDEST DUP3 ADD SWAP2 SWAP1 PUSH0 MSTORE PUSH1 0x20 PUSH0 KECCAK256 SWAP1 JUMPDEST DUP2 SLOAD DUP2 MSTORE SWAP1 PUSH1 0x1 ADD SWAP1 PUSH1 0x20 ADD DUP1 DUP4 GT PUSH2 0x23F JUMPI DUP3 SWAP1 SUB PUSH1 0x1F AND DUP3 ADD SWAP2 JUMPDEST POP POP POP POP POP SWAP1 DUP1 PUSH1 0x1 ADD DUP1 SLOAD PUSH2 0x271 SWAP1 PUSH2 0x1D66 JUMP JUMPDEST DUP1 PUSH1 0x1F ADD PUSH1 0x20 DUP1 SWAP2 DIV MUL PUSH1 0x20 ADD PUSH1 0x40 MLOAD SWAP1 DUP2 ADD PUSH1 0x40 MSTORE DUP1 SWAP3 SWAP2 SWAP1 DUP2 DUP2 MSTORE PUSH1 0x20 ADD DUP3 DUP1 SLOAD PUSH2 0x29D SWAP1 PUSH2 0x1D66 JUMP JUMPDEST DUP1 ISZERO PUSH2 0x2E8 JUMPI DUP1 PUSH1 0x1F LT PUSH2 0x2BF JUMPI PUSH2 0x100 DUP1 DUP4 SLOAD DIV MUL DUP4 MSTORE SWAP2 PUSH1 0x20 ADD SWAP2 PUSH2 0x2E8 JUMP JUMPDEST DUP3 ADD SWAP2 SWAP1 PUSH0 MSTORE PUSH1 0x20 PUSH0 KECCAK256 SWAP1 JUMPDEST DUP2 SLOAD DUP2 MSTORE SWAP1 PUSH1 0x1 ADD SWAP1 PUSH1 0x20 ADD DUP1 DUP4 GT PUSH2 0x2CB JUMPI DUP3 SWAP1 SUB PUSH1 0x1F AND DUP3 ADD SWAP2 JUMPDEST POP POP POP POP POP SWAP1 DUP1 PUSH1 0x2 ADD PUSH0 SWAP1 SLOAD SWAP1 PUSH2 0x100 EXP SWAP1 DIV PUSH20 0xFFFFFFFFFFFFFFFFFFFFFFFFFFFFFFFFFFFFFFFF AND SWAP1 POP DUP4 JUMP JUMPDEST PUSH1 0x2 PUSH1 0x20 MSTORE DUP1 PUSH0 MSTORE PUSH1 0x40 PUSH0 KECCAK256 PUSH0 SWAP2 POP SWAP1 POP DUP1 PUSH0 ADD DUP1 SLOAD PUSH2 0x336 SWAP1 PUSH2 0x1D66 JUMP JUMPDEST DUP1 PUSH1 0x1F ADD PUSH1 0x20 DUP1 SWAP2 DIV MUL PUSH1 0x20 ADD PUSH1 0x40 MLOAD SWAP1 DUP2 ADD PUSH1 0x40 MSTORE DUP1 SWAP3 SWAP2 SWAP1 DUP2 DUP2 MSTORE PUSH1 0x20 ADD DUP3 DUP1 SLOAD PUSH2 0x362 SWAP1 PUSH2 0x1D66 JUMP JUMPDEST DUP1 ISZERO PUSH2 0x3AD JUMPI DUP1 PUSH1 0x1F LT PUSH2 0x384 JUMPI PUSH2 0x100 DUP1 DUP4 SLOAD DIV MUL DUP4 MSTORE SWAP2 PUSH1 0x20 ADD SWAP2 PUSH2 0x3AD JUMP JUMPDEST DUP3 ADD SWAP2 SWAP1 PUSH0 MSTORE PUSH1 0x20 PUSH0 KECCAK256 SWAP1 JUMPDEST DUP2 SLOAD DUP2 MSTORE SWAP1 PUSH1 0x1 ADD SWAP1 PUSH1 0x20 ADD DUP1 DUP4 GT PUSH2 0x390 JUMPI DUP3 SWAP1 SUB PUSH1 0x1F AND DUP3 ADD SWAP2 JUMPDEST POP POP POP POP POP SWAP1 DUP1 PUSH1 0x1 ADD DUP1 SLOAD PUSH2 0x3C2 SWAP1 PUSH2 0x1D66 JUMP JUMPDEST DUP1 PUSH1 0x1F ADD PUSH1 0x20 DUP1 SWAP2 DIV MUL PUSH1 0x20 ADD PUSH1 0x40 MLOAD SWAP1 DUP2 ADD PUSH1 0x40 MSTORE DUP1 SWAP3 SWAP2 SWAP1 DUP2 DUP2 MSTORE PUSH1 0x20 ADD DUP3 DUP1 SLOAD PUSH2 0x3EE SWAP1 PUSH2 0x1D66 JUMP JUMPDEST DUP1 ISZERO PUSH2 0x439 JUMPI DUP1 PUSH1 0x1F LT PUSH2 0x410 JUMPI PUSH2 0x100 DUP1 DUP4 SLOAD DIV MUL DUP4 MSTORE SWAP2 PUSH1 0x20 ADD SWAP2 PUSH2 0x439 JUMP JUMPDEST DUP3 ADD SWAP2 SWAP1 PUSH0 MSTORE PUSH1 0x20 PUSH0 KECCAK256 SWAP1 JUMPDEST DUP2 SLOAD DUP2 MSTORE SWAP1 PUSH1 0x1 ADD SWAP1 PUSH1 0x20 ADD DUP1 DUP4 GT PUSH2 0x41C JUMPI DUP3 SWAP1 SUB PUSH1 0x1F AND DUP3 ADD SWAP2 JUMPDEST POP POP POP POP POP SWAP1 DUP1 PUSH1 0x2 ADD DUP1 SLOAD PUSH2 0x44E SWAP1 PUSH2 0x1D66 JUMP JUMPDEST DUP1 PUSH1 0x1F ADD PUSH1 0x20 DUP1 SWAP2 DIV MUL PUSH1 0x20 ADD PUSH1 0x40 MLOAD SWAP1 DUP2 ADD PUSH1 0x40 MSTORE DUP1 SWAP3 SWAP2 SWAP1 DUP2 DUP2 MSTORE PUSH1 0x20 ADD DUP3 DUP1 SLOAD PUSH2 0x47A SWAP1 PUSH2 0x1D66 JUMP JUMPDEST DUP1 ISZERO PUSH2 0x4C5 JUMPI DUP1 PUSH1 0x1F LT PUSH2 0x49C JUMPI PUSH2 0x100 DUP1 DUP4 SLOAD DIV MUL DUP4 MSTORE SWAP2 PUSH1 0x20 ADD SWAP2 PUSH2 0x4C5 JUMP JUMPDEST DUP3 ADD SWAP2 SWAP1 PUSH0 MSTORE PUSH1 0x20 PUSH0 KECCAK256 SWAP1 JUMPDEST DUP2 SLOAD DUP2 MSTORE SWAP1 PUSH1 0x1 ADD SWAP1 PUSH1 0x20 ADD DUP1 DUP4 GT PUSH2 0x4A8 JUMPI DUP3 SWAP1 SUB PUSH1 0x1F AND DUP3 ADD SWAP2 JUMPDEST POP POP POP POP POP SWAP1 DUP1 PUSH1 0x3 ADD PUSH1 0x40 MLOAD DUP1 PUSH1 0x60 ADD PUSH1 0x40 MSTORE SWAP1 DUP2 PUSH0 DUP3 ADD DUP1 SLOAD PUSH2 0x4E9 SWAP1 PUSH2 0x1D66 JUMP JUMPDEST DUP1 PUSH1 0x1F ADD PUSH1 0x20 DUP1 SWAP2 DIV MUL PUSH1 0x20 ADD PUSH1 0x40 MLOAD SWAP1 DUP2 ADD PUSH1 0x40 MSTORE DUP1 SWAP3 SWAP2 SWAP1 DUP2 DUP2 MSTORE PUSH1 0x20 ADD DUP3 DUP1 SLOAD PUSH2 0x515 SWAP1 PUSH2 0x1D66 JUMP JUMPDEST DUP1 ISZERO PUSH2 0x560 JUMPI DUP1 PUSH1 0x1F LT PUSH2 0x537 JUMPI PUSH2 0x100 DUP1 DUP4 SLOAD DIV MUL DUP4 MSTORE SWAP2 PUSH1 0x20 ADD SWAP2 PUSH2 0x560 JUMP JUMPDEST DUP3 ADD SWAP2 SWAP1 PUSH0 MSTORE PUSH1 0x20 PUSH0 KECCAK256 SWAP1 JUMPDEST DUP2 SLOAD DUP2 MSTORE SWAP1 PUSH1 0x1 ADD SWAP1 PUSH1 0x20 ADD DUP1 DUP4 GT PUSH2 0x543 JUMPI DUP3 SWAP1 SUB PUSH1 0x1F AND DUP3 ADD SWAP2 JUMPDEST POP POP POP POP POP DUP2 MSTORE PUSH1 0x20 ADD PUSH1 0x1 DUP3 ADD DUP1 SLOAD PUSH2 0x579 SWAP1 PUSH2 0x1D66 JUMP JUMPDEST DUP1 PUSH1 0x1F ADD PUSH1 0x20 DUP1 SWAP2 DIV MUL PUSH1 0x20 ADD PUSH1 0x40 MLOAD SWAP1 DUP2 ADD PUSH1 0x40 MSTORE DUP1 SWAP3 SWAP2 SWAP1 DUP2 DUP2 MSTORE PUSH1 0x20 ADD DUP3 DUP1 SLOAD PUSH2 0x5A5 SWAP1 PUSH2 0x1D66 JUMP JUMPDEST DUP1 ISZERO PUSH2 0x5F0 JUMPI DUP1 PUSH1 0x1F LT PUSH2 0x5C7 JUMPI PUSH2 0x100 DUP1 DUP4 SLOAD DIV MUL DUP4 MSTORE SWAP2 PUSH1 0x20 ADD SWAP2 PUSH2 0x5F0 JUMP JUMPDEST DUP3 ADD SWAP2 SWAP1 PUSH0 MSTORE PUSH1 0x20 PUSH0 KECCAK256 SWAP1 JUMPDEST DUP2 SLOAD DUP2 MSTORE SWAP1 PUSH1 0x1 ADD SWAP1 PUSH1 0x20 ADD DUP1 DUP4 GT PUSH2 0x5D3 JUMPI DUP3 SWAP1 SUB PUSH1 0x1F AND DUP3 ADD SWAP2 JUMPDEST POP POP POP POP POP DUP2 MSTORE PUSH1 0x20 ADD PUSH1 0x2 DUP3 ADD PUSH0 SWAP1 SLOAD SWAP1 PUSH2 0x100 EXP SWAP1 DIV PUSH20 0xFFFFFFFFFFFFFFFFFFFFFFFFFFFFFFFFFFFFFFFF AND PUSH20 0xFFFFFFFFFFFFFFFFFFFFFFFFFFFFFFFFFFFFFFFF AND PUSH20 0xFFFFFFFFFFFFFFFFFFFFFFFFFFFFFFFFFFFFFFFF AND DUP2 MSTORE POP POP SWAP1 POP DUP5 JUMP JUMPDEST PUSH0 DUP1 SLOAD SWAP1 PUSH2 0x100 EXP SWAP1 DIV PUSH20 0xFFFFFFFFFFFFFFFFFFFFFFFFFFFFFFFFFFFFFFFF AND DUP2 JUMP JUMPDEST PUSH0 DUP1 SLOAD SWAP1 PUSH2 0x100 EXP SWAP1 DIV PUSH20 0xFFFFFFFFFFFFFFFFFFFFFFFFFFFFFFFFFFFFFFFF AND PUSH20 0xFFFFFFFFFFFFFFFFFFFFFFFFFFFFFFFFFFFFFFFF AND CALLER PUSH20 0xFFFFFFFFFFFFFFFFFFFFFFFFFFFFFFFFFFFFFFFF AND EQ PUSH2 0x703 JUMPI PUSH1 0x40 MLOAD PUSH32 0x8C379A000000000000000000000000000000000000000000000000000000000 DUP2 MSTORE PUSH1 0x4 ADD PUSH2 0x6FA SWAP1 PUSH2 0x1E06 JUMP JUMPDEST PUSH1 0x40 MLOAD DUP1 SWAP2 SUB SWAP1 REVERT JUMPDEST PUSH0 PUSH20 0xFFFFFFFFFFFFFFFFFFFFFFFFFFFFFFFFFFFFFFFF AND DUP2 PUSH20 0xFFFFFFFFFFFFFFFFFFFFFFFFFFFFFFFFFFFFFFFF AND SUB PUSH2 0x771 JUMPI PUSH1 0x40 MLOAD PUSH32 0x8C379A000000000000000000000000000000000000000000000000000000000 DUP2 MSTORE PUSH1 0x4 ADD PUSH2 0x768 SWAP1 PUSH2 0x1E6E JUMP JUMPDEST PUSH1 0x40 MLOAD DUP1 SWAP2 SUB SWAP1 REVERT JUMPDEST DUP1 PUSH0 DUP1 PUSH2 0x100 EXP DUP2 SLOAD DUP2 PUSH20 0xFFFFFFFFFFFFFFFFFFFFFFFFFFFFFFFFFFFFFFFF MUL NOT AND SWAP1 DUP4 PUSH20 0xFFFFFFFFFFFFFFFFFFFFFFFFFFFFFFFFFFFFFFFF AND MUL OR SWAP1 SSTORE POP POP JUMP JUMPDEST PUSH1 0x3 PUSH1 0x20 MSTORE DUP2 PUSH0 MSTORE PUSH1 0x40 PUSH0 KECCAK256 DUP2 DUP2 SLOAD DUP2 LT PUSH2 0x7CC JUMPI PUSH0 DUP1 REVERT JUMPDEST SWAP1 PUSH0 MSTORE PUSH1 0x20 PUSH0 KECCAK256 SWAP1 PUSH1 0x4 SWAP2 DUP3 DUP3 DIV ADD SWAP2 SWAP1 MOD PUSH1 0x8 MUL SWAP2 POP SWAP2 POP SWAP1 SLOAD SWAP1 PUSH2 0x100 EXP SWAP1 DIV PUSH1 0xC0 SHL DUP2 JUMP JUMPDEST PUSH0 DUP1 SLOAD SWAP1 PUSH2 0x100 EXP SWAP1 DIV PUSH20 0xFFFFFFFFFFFFFFFFFFFFFFFFFFFFFFFFFFFFFFFF AND PUSH20 0xFFFFFFFFFFFFFFFFFFFFFFFFFFFFFFFFFFFFFFFF AND CALLER PUSH20 0xFFFFFFFFFFFFFFFFFFFFFFFFFFFFFFFFFFFFFFFF AND EQ PUSH2 0x881 JUMPI PUSH1 0x40 MLOAD PUSH32 0x8C379A000000000000000000000000000000000000000000000000000000000 DUP2 MSTORE PUSH1 0x4 ADD PUSH2 0x878 SWAP1 PUSH2 0x1E06 JUMP JUMPDEST PUSH1 0x40 MLOAD DUP1 SWAP2 SUB SWAP1 REVERT JUMPDEST PUSH0 PUSH1 0x1 PUSH0 DUP4 PUSH20 0xFFFFFFFFFFFFFFFFFFFFFFFFFFFFFFFFFFFFFFFF AND PUSH20 0xFFFFFFFFFFFFFFFFFFFFFFFFFFFFFFFFFFFFFFFF AND DUP2 MSTORE PUSH1 0x20 ADD SWAP1 DUP2 MSTORE PUSH1 0x20 ADD PUSH0 KECCAK256 SWAP1 POP DUP4 DUP2 PUSH0 ADD SWAP1 DUP2 PUSH2 0x8D1 SWAP2 SWAP1 PUSH2 0x2029 JUMP JUMPDEST POP DUP3 DUP2 PUSH1 0x1 ADD SWAP1 DUP2 PUSH2 0x8E3 SWAP2 SWAP1 PUSH2 0x2029 JUMP JUMPDEST POP DUP2 DUP2 PUSH1 0x2 ADD PUSH0 PUSH2 0x100 EXP DUP2 SLOAD DUP2 PUSH20 0xFFFFFFFFFFFFFFFFFFFFFFFFFFFFFFFFFFFFFFFF MUL NOT AND SWAP1 DUP4 PUSH20 0xFFFFFFFFFFFFFFFFFFFFFFFFFFFFFFFFFFFFFFFF AND MUL OR SWAP1 SSTORE POP DUP2 PUSH20 0xFFFFFFFFFFFFFFFFFFFFFFFFFFFFFFFFFFFFFFFF AND DUP3 PUSH20 0xFFFFFFFFFFFFFFFFFFFFFFFFFFFFFFFFFFFFFFFF AND PUSH32 0xA277AFE5421119083DF40C6301966F9165C4BE848A2D53E63B88F31A4A1F1CD4 DUP7 DUP7 PUSH1 0x40 MLOAD PUSH2 0x985 SWAP3 SWAP2 SWAP1 PUSH2 0x20F8 JUMP JUMPDEST PUSH1 0x40 MLOAD DUP1 SWAP2 SUB SWAP1 LOG3 POP POP POP POP JUMP JUMPDEST PUSH1 0x60 DUP1 PUSH1 0x60 PUSH2 0x9A0 PUSH2 0x1186 JUMP JUMPDEST PUSH1 0x60 DUP1 PUSH0 PUSH1 0x2 PUSH0 DUP10 PUSH24 0xFFFFFFFFFFFFFFFFFFFFFFFFFFFFFFFFFFFFFFFFFFFFFFFF NOT AND PUSH24 0xFFFFFFFFFFFFFFFFFFFFFFFFFFFFFFFFFFFFFFFFFFFFFFFF NOT AND DUP2 MSTORE PUSH1 0x20 ADD SWAP1 DUP2 MSTORE PUSH1 0x20 ADD PUSH0 KECCAK256 SWAP1 POP DUP1 PUSH0 ADD DUP2 PUSH1 0x1 ADD DUP3 PUSH1 0x2 ADD DUP4 PUSH1 0x3 ADD DUP5 PUSH1 0x6 ADD DUP6 PUSH1 0x7 ADD DUP6 DUP1 SLOAD PUSH2 0xA10 SWAP1 PUSH2 0x1D66 JUMP JUMPDEST DUP1 PUSH1 0x1F ADD PUSH1 0x20 DUP1 SWAP2 DIV MUL PUSH1 0x20 ADD PUSH1 0x40 MLOAD SWAP1 DUP2 ADD PUSH1 0x40 MSTORE DUP1 SWAP3 SWAP2 SWAP1 DUP2 DUP2 MSTORE PUSH1 0x20 ADD DUP3 DUP1 SLOAD PUSH2 0xA3C SWAP1 PUSH2 0x1D66 JUMP JUMPDEST DUP1 ISZERO PUSH2 0xA87 JUMPI DUP1 PUSH1 0x1F LT PUSH2 0xA5E JUMPI PUSH2 0x100 DUP1 DUP4 SLOAD DIV MUL DUP4 MSTORE SWAP2 PUSH1 0x20 ADD SWAP2 PUSH2 0xA87 JUMP JUMPDEST DUP3 ADD SWAP2 SWAP1 PUSH0 MSTORE PUSH1 0x20 PUSH0 KECCAK256 SWAP1 JUMPDEST DUP2 SLOAD DUP2 MSTORE SWAP1 PUSH1 0x1 ADD SWAP1 PUSH1 0x20 ADD DUP1 DUP4 GT PUSH2 0xA6A JUMPI DUP3 SWAP1 SUB PUSH1 0x1F AND DUP3 ADD SWAP2 JUMPDEST POP POP POP POP POP SWAP6 POP DUP5 DUP1 SLOAD PUSH2 0xA9A SWAP1 PUSH2 0x1D66 JUMP JUMPDEST DUP1 PUSH1 0x1F ADD PUSH1 0x20 DUP1 SWAP2 DIV MUL PUSH1 0x20 ADD PUSH1 0x40 MLOAD SWAP1 DUP2 ADD PUSH1 0x40 MSTORE DUP1 SWAP3 SWAP2 SWAP1 DUP2 DUP2 MSTORE PUSH1 0x20 ADD DUP3 DUP1 SLOAD PUSH2 0xAC6 SWAP1 PUSH2 0x1D66 JUMP JUMPDEST DUP1 ISZERO PUSH2 0xB11 JUMPI DUP1 PUSH1 0x1F LT PUSH2 0xAE8 JUMPI PUSH2 0x100 DUP1 DUP4 SLOAD DIV MUL DUP4 MSTORE SWAP2 PUSH1 0x20 ADD SWAP2 PUSH2 0xB11 JUMP JUMPDEST DUP3 ADD SWAP2 SWAP1 PUSH0 MSTORE PUSH1 0x20 PUSH0 KECCAK256 SWAP1 JUMPDEST DUP2 SLOAD DUP2 MSTORE SWAP1 PUSH1 0x1 ADD SWAP1 PUSH1 0x20 ADD DUP1 DUP4 GT PUSH2 0xAF4 JUMPI DUP3 SWAP1 SUB PUSH1 0x1F AND DUP3 ADD SWAP2 JUMPDEST POP POP POP POP POP SWAP5 POP DUP4 DUP1 SLOAD PUSH2 0xB24 SWAP1 PUSH2 0x1D66 JUMP JUMPDEST DUP1 PUSH1 0x1F ADD PUSH1 0x20 DUP1 SWAP2 DIV MUL PUSH1 0x20 ADD PUSH1 0x40 MLOAD SWAP1 DUP2 ADD PUSH1 0x40 MSTORE DUP1 SWAP3 SWAP2 SWAP1 DUP2 DUP2 MSTORE PUSH1 0x20 ADD DUP3 DUP1 SLOAD PUSH2 0xB50 SWAP1 PUSH2 0x1D66 JUMP JUMPDEST DUP1 ISZERO PUSH2 0xB9B JUMPI DUP1 PUSH1 0x1F LT PUSH2 0xB72 JUMPI PUSH2 0x100 DUP1 DUP4 SLOAD DIV MUL DUP4 MSTORE SWAP2 PUSH1 0x20 ADD SWAP2 PUSH2 0xB9B JUMP JUMPDEST DUP3 ADD SWAP2 SWAP1 PUSH0 MSTORE PUSH1 0x20 PUSH0 KECCAK256 SWAP1 JUMPDEST DUP2 SLOAD DUP2 MSTORE SWAP1 PUSH1 0x1 ADD SWAP1 PUSH1 0x20 ADD DUP1 DUP4 GT PUSH2 0xB7E JUMPI DUP3 SWAP1 SUB PUSH1 0x1F AND DUP3 ADD SWAP2 JUMPDEST POP POP POP POP POP SWAP4 POP DUP3 PUSH1 0x40 MLOAD DUP1 PUSH1 0x60 ADD PUSH1 0x40 MSTORE SWAP1 DUP2 PUSH0 DUP3 ADD DUP1 SLOAD PUSH2 0xBBD SWAP1 PUSH2 0x1D66 JUMP JUMPDEST DUP1 PUSH1 0x1F ADD PUSH1 0x20 DUP1 SWAP2 DIV MUL PUSH1 0x20 ADD PUSH1 0x40 MLOAD SWAP1 DUP2 ADD PUSH1 0x40 MSTORE DUP1 SWAP3 SWAP2 SWAP1 DUP2 DUP2 MSTORE PUSH1 0x20 ADD DUP3 DUP1 SLOAD PUSH2 0xBE9 SWAP1 PUSH2 0x1D66 JUMP JUMPDEST DUP1 ISZERO PUSH2 0xC34 JUMPI DUP1 PUSH1 0x1F LT PUSH2 0xC0B JUMPI PUSH2 0x100 DUP1 DUP4 SLOAD DIV MUL DUP4 MSTORE SWAP2 PUSH1 0x20 ADD SWAP2 PUSH2 0xC34 JUMP JUMPDEST DUP3 ADD SWAP2 SWAP1 PUSH0 MSTORE PUSH1 0x20 PUSH0 KECCAK256 SWAP1 JUMPDEST DUP2 SLOAD DUP2 MSTORE SWAP1 PUSH1 0x1 ADD SWAP1 PUSH1 0x20 ADD DUP1 DUP4 GT PUSH2 0xC17 JUMPI DUP3 SWAP1 SUB PUSH1 0x1F AND DUP3 ADD SWAP2 JUMPDEST POP POP POP POP POP DUP2 MSTORE PUSH1 0x20 ADD PUSH1 0x1 DUP3 ADD DUP1 SLOAD PUSH2 0xC4D SWAP1 PUSH2 0x1D66 JUMP JUMPDEST DUP1 PUSH1 0x1F ADD PUSH1 0x20 DUP1 SWAP2 DIV MUL PUSH1 0x20 ADD PUSH1 0x40 MLOAD SWAP1 DUP2 ADD PUSH1 0x40 MSTORE DUP1 SWAP3 SWAP2 SWAP1 DUP2 DUP2 MSTORE PUSH1 0x20 ADD DUP3 DUP1 SLOAD PUSH2 0xC79 SWAP1 PUSH2 0x1D66 JUMP JUMPDEST DUP1 ISZERO PUSH2 0xCC4 JUMPI DUP1 PUSH1 0x1F LT PUSH2 0xC9B JUMPI PUSH2 0x100 DUP1 DUP4 SLOAD DIV MUL DUP4 MSTORE SWAP2 PUSH1 0x20 ADD SWAP2 PUSH2 0xCC4 JUMP JUMPDEST DUP3 ADD SWAP2 SWAP1 PUSH0 MSTORE PUSH1 0x20 PUSH0 KECCAK256 SWAP1 JUMPDEST DUP2 SLOAD DUP2 MSTORE SWAP1 PUSH1 0x1 ADD SWAP1 PUSH1 0x20 ADD DUP1 DUP4 GT PUSH2 0xCA7 JUMPI DUP3 SWAP1 SUB PUSH1 0x1F AND DUP3 ADD SWAP2 JUMPDEST POP POP POP POP POP DUP2 MSTORE PUSH1 0x20 ADD PUSH1 0x2 DUP3 ADD PUSH0 SWAP1 SLOAD SWAP1 PUSH2 0x100 EXP SWAP1 DIV PUSH20 0xFFFFFFFFFFFFFFFFFFFFFFFFFFFFFFFFFFFFFFFF AND PUSH20 0xFFFFFFFFFFFFFFFFFFFFFFFFFFFFFFFFFFFFFFFF AND PUSH20 0xFFFFFFFFFFFFFFFFFFFFFFFFFFFFFFFFFFFFFFFF AND DUP2 MSTORE POP POP SWAP3 POP DUP2 DUP1 SLOAD DUP1 PUSH1 0x20 MUL PUSH1 0x20 ADD PUSH1 0x40 MLOAD SWAP1 DUP2 ADD PUSH1 0x40 MSTORE DUP1 SWAP3 SWAP2 SWAP1 DUP2 DUP2 MSTORE PUSH1 0x20 ADD PUSH0 SWAP1 JUMPDEST DUP3 DUP3 LT ISZERO PUSH2 0xDEC JUMPI DUP4 DUP3 SWAP1 PUSH0 MSTORE PUSH1 0x20 PUSH0 KECCAK256 ADD DUP1 SLOAD PUSH2 0xD61 SWAP1 PUSH2 0x1D66 JUMP JUMPDEST DUP1 PUSH1 0x1F ADD PUSH1 0x20 DUP1 SWAP2 DIV MUL PUSH1 0x20 ADD PUSH1 0x40 MLOAD SWAP1 DUP2 ADD PUSH1 0x40 MSTORE DUP1 SWAP3 SWAP2 SWAP1 DUP2 DUP2 MSTORE PUSH1 0x20 ADD DUP3 DUP1 SLOAD PUSH2 0xD8D SWAP1 PUSH2 0x1D66 JUMP JUMPDEST DUP1 ISZERO PUSH2 0xDD8 JUMPI DUP1 PUSH1 0x1F LT PUSH2 0xDAF JUMPI PUSH2 0x100 DUP1 DUP4 SLOAD DIV MUL DUP4 MSTORE SWAP2 PUSH1 0x20 ADD SWAP2 PUSH2 0xDD8 JUMP JUMPDEST DUP3 ADD SWAP2 SWAP1 PUSH0 MSTORE PUSH1 0x20 PUSH0 KECCAK256 SWAP1 JUMPDEST DUP2 SLOAD DUP2 MSTORE SWAP1 PUSH1 0x1 ADD SWAP1 PUSH1 0x20 ADD DUP1 DUP4 GT PUSH2 0xDBB JUMPI DUP3 SWAP1 SUB PUSH1 0x1F AND DUP3 ADD SWAP2 JUMPDEST POP POP POP POP POP DUP2 MSTORE PUSH1 0x20 ADD SWAP1 PUSH1 0x1 ADD SWAP1 PUSH2 0xD44 JUMP JUMPDEST POP POP POP POP SWAP2 POP DUP1 DUP1 SLOAD DUP1 PUSH1 0x20 MUL PUSH1 0x20 ADD PUSH1 0x40 MLOAD SWAP1 DUP2 ADD PUSH1 0x40 MSTORE DUP1 SWAP3 SWAP2 SWAP1 DUP2 DUP2 MSTORE PUSH1 0x20 ADD DUP3 DUP1 SLOAD DUP1 ISZERO PUSH2 0xE5F JUMPI PUSH1 0x20 MUL DUP3 ADD SWAP2 SWAP1 PUSH0 MSTORE PUSH1 0x20 PUSH0 KECCAK256 SWAP1 PUSH0 SWAP1 JUMPDEST DUP3 DUP3 SWAP1 SLOAD SWAP1 PUSH2 0x100 EXP SWAP1 DIV PUSH1 0xFF AND PUSH1 0xFF AND DUP2 MSTORE PUSH1 0x20 ADD SWAP1 PUSH1 0x1 ADD SWAP1 PUSH1 0x20 DUP3 PUSH0 ADD DIV SWAP3 DUP4 ADD SWAP3 PUSH1 0x1 SUB DUP3 MUL SWAP2 POP DUP1 DUP5 GT PUSH2 0xE29 JUMPI SWAP1 POP JUMPDEST POP POP POP POP POP SWAP1 POP SWAP7 POP SWAP7 POP SWAP7 POP SWAP7 POP SWAP7 POP SWAP7 POP POP SWAP2 SWAP4 SWAP6 POP SWAP2 SWAP4 SWAP6 JUMP JUMPDEST DUP1 MLOAD DUP3 MLOAD EQ PUSH2 0xEC0 JUMPI PUSH1 0x40 MLOAD PUSH32 0x8C379A000000000000000000000000000000000000000000000000000000000 DUP2 MSTORE PUSH1 0x4 ADD PUSH2 0xEB7 SWAP1 PUSH2 0x219D JUMP JUMPDEST PUSH1 0x40 MLOAD DUP1 SWAP2 SUB SWAP1 REVERT JUMPDEST PUSH0 PUSH1 0x1 PUSH0 CALLER PUSH20 0xFFFFFFFFFFFFFFFFFFFFFFFFFFFFFFFFFFFFFFFF AND PUSH20 0xFFFFFFFFFFFFFFFFFFFFFFFFFFFFFFFFFFFFFFFF AND DUP2 MSTORE PUSH1 0x20 ADD SWAP1 DUP2 MSTORE PUSH1 0x20 ADD PUSH0 KECCAK256 SWAP1 POP PUSH0 PUSH2 0xF09 PUSH2 0x1155 JUMP JUMPDEST SWAP1 POP PUSH0 PUSH1 0x2 PUSH0 DUP4 PUSH24 0xFFFFFFFFFFFFFFFFFFFFFFFFFFFFFFFFFFFFFFFFFFFFFFFF NOT AND PUSH24 0xFFFFFFFFFFFFFFFFFFFFFFFFFFFFFFFFFFFFFFFFFFFFFFFF NOT AND DUP2 MSTORE PUSH1 0x20 ADD SWAP1 DUP2 MSTORE PUSH1 0x20 ADD PUSH0 KECCAK256 SWAP1 POP DUP7 DUP2 PUSH0 ADD SWAP1 DUP2 PUSH2 0xF65 SWAP2 SWAP1 PUSH2 0x2029 JUMP JUMPDEST POP DUP6 DUP2 PUSH1 0x1 ADD SWAP1 DUP2 PUSH2 0xF77 SWAP2 SWAP1 PUSH2 0x2029 JUMP JUMPDEST POP DUP3 PUSH1 0x1 ADD DUP2 PUSH1 0x2 ADD SWAP1 DUP2 PUSH2 0xF8C SWAP2 SWAP1 PUSH2 0x21E2 JUMP JUMPDEST POP DUP3 DUP2 PUSH1 0x3 ADD PUSH0 DUP3 ADD DUP2 PUSH0 ADD SWAP1 DUP2 PUSH2 0xFA4 SWAP2 SWAP1 PUSH2 0x22DC JUMP JUMPDEST POP PUSH1 0x1 DUP3 ADD DUP2 PUSH1 0x1 ADD SWAP1 DUP2 PUSH2 0xFB9 SWAP2 SWAP1 PUSH2 0x22DC JUMP JUMPDEST POP PUSH1 0x2 DUP3 ADD PUSH0 SWAP1 SLOAD SWAP1 PUSH2 0x100 EXP SWAP1 DIV PUSH20 0xFFFFFFFFFFFFFFFFFFFFFFFFFFFFFFFFFFFFFFFF AND DUP2 PUSH1 0x2 ADD PUSH0 PUSH2 0x100 EXP DUP2 SLOAD DUP2 PUSH20 0xFFFFFFFFFFFFFFFFFFFFFFFFFFFFFFFFFFFFFFFF MUL NOT AND SWAP1 DUP4 PUSH20 0xFFFFFFFFFFFFFFFFFFFFFFFFFFFFFFFFFFFFFFFF AND MUL OR SWAP1 SSTORE POP SWAP1 POP POP DUP5 DUP2 PUSH1 0x6 ADD SWAP1 DUP1 MLOAD SWAP1 PUSH1 0x20 ADD SWAP1 PUSH2 0x103A SWAP3 SWAP2 SWAP1 PUSH2 0x11BC JUMP JUMPDEST POP DUP4 DUP2 PUSH1 0x7 ADD SWAP1 DUP1 MLOAD SWAP1 PUSH1 0x20 ADD SWAP1 PUSH2 0x1053 SWAP3 SWAP2 SWAP1 PUSH2 0x1213 JUMP JUMPDEST POP PUSH1 0x3 PUSH0 CALLER PUSH20 0xFFFFFFFFFFFFFFFFFFFFFFFFFFFFFFFFFFFFFFFF AND PUSH20 0xFFFFFFFFFFFFFFFFFFFFFFFFFFFFFFFFFFFFFFFF AND DUP2 MSTORE PUSH1 0x20 ADD SWAP1 DUP2 MSTORE PUSH1 0x20 ADD PUSH0 KECCAK256 DUP3 SWAP1 DUP1 PUSH1 0x1 DUP2 SLOAD ADD DUP1 DUP3 SSTORE DUP1 SWAP2 POP POP PUSH1 0x1 SWAP1 SUB SWAP1 PUSH0 MSTORE PUSH1 0x20 PUSH0 KECCAK256 SWAP1 PUSH1 0x4 SWAP2 DUP3 DUP3 DIV ADD SWAP2 SWAP1 MOD PUSH1 0x8 MUL SWAP1 SWAP2 SWAP1 SWAP2 SWAP1 SWAP2 PUSH2 0x100 EXP DUP2 SLOAD DUP2 PUSH8 0xFFFFFFFFFFFFFFFF MUL NOT AND SWAP1 DUP4 PUSH1 0xC0 SHR MUL OR SWAP1 SSTORE POP DUP2 PUSH24 0xFFFFFFFFFFFFFFFFFFFFFFFFFFFFFFFFFFFFFFFFFFFFFFFF NOT AND CALLER PUSH20 0xFFFFFFFFFFFFFFFFFFFFFFFFFFFFFFFFFFFFFFFF AND PUSH32 0x4E6130E71B8B4359DCA253514E4DFF9548D42A5642FDF244E5EBBBC4A02148B2 DUP10 DUP10 DUP10 DUP10 PUSH1 0x40 MLOAD PUSH2 0x1144 SWAP5 SWAP4 SWAP3 SWAP2 SWAP1 PUSH2 0x23C1 JUMP JUMPDEST PUSH1 0x40 MLOAD DUP1 SWAP2 SUB SWAP1 LOG3 POP POP POP POP POP POP POP JUMP JUMPDEST PUSH0 TIMESTAMP PREVRANDAO CALLER PUSH1 0x40 MLOAD PUSH1 0x20 ADD PUSH2 0x116B SWAP4 SWAP3 SWAP2 SWAP1 PUSH2 0x2485 JUMP JUMPDEST PUSH1 0x40 MLOAD PUSH1 0x20 DUP2 DUP4 SUB SUB DUP2 MSTORE SWAP1 PUSH1 0x40 MSTORE DUP1 MLOAD SWAP1 PUSH1 0x20 ADD KECCAK256 SWAP1 POP SWAP1 JUMP JUMPDEST PUSH1 0x40 MLOAD DUP1 PUSH1 0x60 ADD PUSH1 0x40 MSTORE DUP1 PUSH1 0x60 DUP2 MSTORE PUSH1 0x20 ADD PUSH1 0x60 DUP2 MSTORE PUSH1 0x20 ADD PUSH0 PUSH20 0xFFFFFFFFFFFFFFFFFFFFFFFFFFFFFFFFFFFFFFFF AND DUP2 MSTORE POP SWAP1 JUMP JUMPDEST DUP3 DUP1 SLOAD DUP3 DUP3 SSTORE SWAP1 PUSH0 MSTORE PUSH1 0x20 PUSH0 KECCAK256 SWAP1 DUP2 ADD SWAP3 DUP3 ISZERO PUSH2 0x1202 JUMPI SWAP2 PUSH1 0x20 MUL DUP3 ADD JUMPDEST DUP3 DUP2 GT ISZERO PUSH2 0x1201 JUMPI DUP3 MLOAD DUP3 SWAP1 DUP2 PUSH2 0x11F1 SWAP2 SWAP1 PUSH2 0x2029 JUMP JUMPDEST POP SWAP2 PUSH1 0x20 ADD SWAP2 SWAP1 PUSH1 0x1 ADD SWAP1 PUSH2 0x11DA JUMP JUMPDEST JUMPDEST POP SWAP1 POP PUSH2 0x120F SWAP2 SWAP1 PUSH2 0x12B5 JUMP JUMPDEST POP SWAP1 JUMP JUMPDEST DUP3 DUP1 SLOAD DUP3 DUP3 SSTORE SWAP1 PUSH0 MSTORE PUSH1 0x20 PUSH0 KECCAK256 SWAP1 PUSH1 0x1F ADD PUSH1 0x20 SWAP1 DIV DUP2 ADD SWAP3 DUP3 ISZERO PUSH2 0x12A4 JUMPI SWAP2 PUSH1 0x20 MUL DUP3 ADD PUSH0 JUMPDEST DUP4 DUP3 GT ISZERO PUSH2 0x1276 JUMPI DUP4 MLOAD DUP4 DUP3 PUSH2 0x100 EXP DUP2 SLOAD DUP2 PUSH1 0xFF MUL NOT AND SWAP1 DUP4 PUSH1 0xFF AND MUL OR SWAP1 SSTORE POP SWAP3 PUSH1 0x20 ADD SWAP3 PUSH1 0x1 ADD PUSH1 0x20 DUP2 PUSH0 ADD DIV SWAP3 DUP4 ADD SWAP3 PUSH1 0x1 SUB MUL PUSH2 0x1239 JUMP JUMPDEST DUP1 ISZERO PUSH2 0x12A2 JUMPI DUP3 DUP2 PUSH2 0x100 EXP DUP2 SLOAD SWAP1 PUSH1 0xFF MUL NOT AND SWAP1 SSTORE PUSH1 0x1 ADD PUSH1 0x20 DUP2 PUSH0 ADD DIV SWAP3 DUP4 ADD SWAP3 PUSH1 0x1 SUB MUL PUSH2 0x1276 JUMP JUMPDEST POP JUMPDEST POP SWAP1 POP PUSH2 0x12B1 SWAP2 SWAP1 PUSH2 0x12D8 JUMP JUMPDEST POP SWAP1 JUMP JUMPDEST JUMPDEST DUP1 DUP3 GT ISZERO PUSH2 0x12D4 JUMPI PUSH0 DUP2 DUP2 PUSH2 0x12CB SWAP2 SWAP1 PUSH2 0x12F3 JUMP JUMPDEST POP PUSH1 0x1 ADD PUSH2 0x12B6 JUMP JUMPDEST POP SWAP1 JUMP JUMPDEST JUMPDEST DUP1 DUP3 GT ISZERO PUSH2 0x12EF JUMPI PUSH0 DUP2 PUSH0 SWAP1 SSTORE POP PUSH1 0x1 ADD PUSH2 0x12D9 JUMP JUMPDEST POP SWAP1 JUMP JUMPDEST POP DUP1 SLOAD PUSH2 0x12FF SWAP1 PUSH2 0x1D66 JUMP JUMPDEST PUSH0 DUP3 SSTORE DUP1 PUSH1 0x1F LT PUSH2 0x1310 JUMPI POP PUSH2 0x132D JUMP JUMPDEST PUSH1 0x1F ADD PUSH1 0x20 SWAP1 DIV SWAP1 PUSH0 MSTORE PUSH1 0x20 PUSH0 KECCAK256 SWAP1 DUP2 ADD SWAP1 PUSH2 0x132C SWAP2 SWAP1 PUSH2 0x12D8 JUMP JUMPDEST JUMPDEST POP JUMP JUMPDEST PUSH0 PUSH1 0x40 MLOAD SWAP1 POP SWAP1 JUMP JUMPDEST PUSH0 DUP1 REVERT JUMPDEST PUSH0 DUP1 REVERT JUMPDEST PUSH0 PUSH20 0xFFFFFFFFFFFFFFFFFFFFFFFFFFFFFFFFFFFFFFFF DUP3 AND SWAP1 POP SWAP2 SWAP1 POP JUMP JUMPDEST PUSH0 PUSH2 0x136A DUP3 PUSH2 0x1341 JUMP JUMPDEST SWAP1 POP SWAP2 SWAP1 POP JUMP JUMPDEST PUSH2 0x137A DUP2 PUSH2 0x1360 JUMP JUMPDEST DUP2 EQ PUSH2 0x1384 JUMPI PUSH0 DUP1 REVERT JUMPDEST POP JUMP JUMPDEST PUSH0 DUP2 CALLDATALOAD SWAP1 POP PUSH2 0x1395 DUP2 PUSH2 0x1371 JUMP JUMPDEST SWAP3 SWAP2 POP POP JUMP JUMPDEST PUSH0 PUSH1 0x20 DUP3 DUP5 SUB SLT ISZERO PUSH2 0x13B0 JUMPI PUSH2 0x13AF PUSH2 0x1339 JUMP JUMPDEST JUMPDEST PUSH0 PUSH2 0x13BD DUP5 DUP3 DUP6 ADD PUSH2 0x1387 JUMP JUMPDEST SWAP2 POP POP SWAP3 SWAP2 POP POP JUMP JUMPDEST PUSH0 DUP2 MLOAD SWAP1 POP SWAP2 SWAP1 POP JUMP JUMPDEST PUSH0 DUP3 DUP3 MSTORE PUSH1 0x20 DUP3 ADD SWAP1 POP SWAP3 SWAP2 POP POP JUMP JUMPDEST PUSH0 JUMPDEST DUP4 DUP2 LT ISZERO PUSH2 0x13FD JUMPI DUP1 DUP3 ADD MLOAD DUP2 DUP5 ADD MSTORE PUSH1 0x20 DUP2 ADD SWAP1 POP PUSH2 0x13E2 JUMP JUMPDEST PUSH0 DUP5 DUP5 ADD MSTORE POP POP POP POP JUMP JUMPDEST PUSH0 PUSH1 0x1F NOT PUSH1 0x1F DUP4 ADD AND SWAP1 POP SWAP2 SWAP1 POP JUMP JUMPDEST PUSH0 PUSH2 0x1422 DUP3 PUSH2 0x13C6 JUMP JUMPDEST PUSH2 0x142C DUP2 DUP6 PUSH2 0x13D0 JUMP JUMPDEST SWAP4 POP PUSH2 0x143C DUP2 DUP6 PUSH1 0x20 DUP7 ADD PUSH2 0x13E0 JUMP JUMPDEST PUSH2 0x1445 DUP2 PUSH2 0x1408 JUMP JUMPDEST DUP5 ADD SWAP2 POP POP SWAP3 SWAP2 POP POP JUMP JUMPDEST PUSH2 0x1459 DUP2 PUSH2 0x1360 JUMP JUMPDEST DUP3 MSTORE POP POP JUMP JUMPDEST PUSH0 PUSH1 0x60 DUP3 ADD SWAP1 POP DUP2 DUP2 SUB PUSH0 DUP4 ADD MSTORE PUSH2 0x1477 DUP2 DUP7 PUSH2 0x1418 JUMP JUMPDEST SWAP1 POP DUP2 DUP2 SUB PUSH1 0x20 DUP4 ADD MSTORE PUSH2 0x148B DUP2 DUP6 PUSH2 0x1418 JUMP JUMPDEST SWAP1 POP PUSH2 0x149A PUSH1 0x40 DUP4 ADD DUP5 PUSH2 0x1450 JUMP JUMPDEST SWAP5 SWAP4 POP POP POP POP JUMP JUMPDEST PUSH0 PUSH32 0xFFFFFFFFFFFFFFFF000000000000000000000000000000000000000000000000 DUP3 AND SWAP1 POP SWAP2 SWAP1 POP JUMP JUMPDEST PUSH2 0x14D6 DUP2 PUSH2 0x14A2 JUMP JUMPDEST DUP2 EQ PUSH2 0x14E0 JUMPI PUSH0 DUP1 REVERT JUMPDEST POP JUMP JUMPDEST PUSH0 DUP2 CALLDATALOAD SWAP1 POP PUSH2 0x14F1 DUP2 PUSH2 0x14CD JUMP JUMPDEST SWAP3 SWAP2 POP POP JUMP JUMPDEST PUSH0 PUSH1 0x20 DUP3 DUP5 SUB SLT ISZERO PUSH2 0x150C JUMPI PUSH2 0x150B PUSH2 0x1339 JUMP JUMPDEST JUMPDEST PUSH0 PUSH2 0x1519 DUP5 DUP3 DUP6 ADD PUSH2 0x14E3 JUMP JUMPDEST SWAP2 POP POP SWAP3 SWAP2 POP POP JUMP JUMPDEST PUSH0 DUP3 DUP3 MSTORE PUSH1 0x20 DUP3 ADD SWAP1 POP SWAP3 SWAP2 POP POP JUMP JUMPDEST PUSH0 PUSH2 0x153C DUP3 PUSH2 0x13C6 JUMP JUMPDEST PUSH2 0x1546 DUP2 DUP6 PUSH2 0x1522 JUMP JUMPDEST SWAP4 POP PUSH2 0x1556 DUP2 DUP6 PUSH1 0x20 DUP7 ADD PUSH2 0x13E0 JUMP JUMPDEST PUSH2 0x155F DUP2 PUSH2 0x1408 JUMP JUMPDEST DUP5 ADD SWAP2 POP POP SWAP3 SWAP2 POP POP JUMP JUMPDEST PUSH2 0x1573 DUP2 PUSH2 0x1360 JUMP JUMPDEST DUP3 MSTORE POP POP JUMP JUMPDEST PUSH0 PUSH1 0x60 DUP4 ADD PUSH0 DUP4 ADD MLOAD DUP5 DUP3 SUB PUSH0 DUP7 ADD MSTORE PUSH2 0x1593 DUP3 DUP3 PUSH2 0x1532 JUMP JUMPDEST SWAP2 POP POP PUSH1 0x20 DUP4 ADD MLOAD DUP5 DUP3 SUB PUSH1 0x20 DUP7 ADD MSTORE PUSH2 0x15AD DUP3 DUP3 PUSH2 0x1532 JUMP JUMPDEST SWAP2 POP POP PUSH1 0x40 DUP4 ADD MLOAD PUSH2 0x15C2 PUSH1 0x40 DUP7 ADD DUP3 PUSH2 0x156A JUMP JUMPDEST POP DUP1 SWAP2 POP POP SWAP3 SWAP2 POP POP JUMP JUMPDEST PUSH0 PUSH1 0x80 DUP3 ADD SWAP1 POP DUP2 DUP2 SUB PUSH0 DUP4 ADD MSTORE PUSH2 0x15E5 DUP2 DUP8 PUSH2 0x1418 JUMP JUMPDEST SWAP1 POP DUP2 DUP2 SUB PUSH1 0x20 DUP4 ADD MSTORE PUSH2 0x15F9 DUP2 DUP7 PUSH2 0x1418 JUMP JUMPDEST SWAP1 POP DUP2 DUP2 SUB PUSH1 0x40 DUP4 ADD MSTORE PUSH2 0x160D DUP2 DUP6 PUSH2 0x1418 JUMP JUMPDEST SWAP1 POP DUP2 DUP2 SUB PUSH1 0x60 DUP4 ADD MSTORE PUSH2 0x1621 DUP2 DUP5 PUSH2 0x1579 JUMP JUMPDEST SWAP1 POP SWAP6 SWAP5 POP POP POP POP POP JUMP JUMPDEST PUSH0 PUSH1 0x20 DUP3 ADD SWAP1 POP PUSH2 0x163F PUSH0 DUP4 ADD DUP5 PUSH2 0x1450 JUMP JUMPDEST SWAP3 SWAP2 POP POP JUMP JUMPDEST PUSH0 DUP2 SWAP1 POP SWAP2 SWAP1 POP JUMP JUMPDEST PUSH2 0x1657 DUP2 PUSH2 0x1645 JUMP JUMPDEST DUP2 EQ PUSH2 0x1661 JUMPI PUSH0 DUP1 REVERT JUMPDEST POP JUMP JUMPDEST PUSH0 DUP2 CALLDATALOAD SWAP1 POP PUSH2 0x1672 DUP2 PUSH2 0x164E JUMP JUMPDEST SWAP3 SWAP2 POP POP JUMP JUMPDEST PUSH0 DUP1 PUSH1 0x40 DUP4 DUP6 SUB SLT ISZERO PUSH2 0x168E JUMPI PUSH2 0x168D PUSH2 0x1339 JUMP JUMPDEST JUMPDEST PUSH0 PUSH2 0x169B DUP6 DUP3 DUP7 ADD PUSH2 0x1387 JUMP JUMPDEST SWAP3 POP POP PUSH1 0x20 PUSH2 0x16AC DUP6 DUP3 DUP7 ADD PUSH2 0x1664 JUMP JUMPDEST SWAP2 POP POP SWAP3 POP SWAP3 SWAP1 POP JUMP JUMPDEST PUSH2 0x16BF DUP2 PUSH2 0x14A2 JUMP JUMPDEST DUP3 MSTORE POP POP JUMP JUMPDEST PUSH0 PUSH1 0x20 DUP3 ADD SWAP1 POP PUSH2 0x16D8 PUSH0 DUP4 ADD DUP5 PUSH2 0x16B6 JUMP JUMPDEST SWAP3 SWAP2 POP POP JUMP JUMPDEST PUSH0 DUP1 REVERT JUMPDEST PUSH0 DUP1 REVERT JUMPDEST PUSH32 0x4E487B7100000000000000000000000000000000000000000000000000000000 PUSH0 MSTORE PUSH1 0x41 PUSH1 0x4 MSTORE PUSH1 0x24 PUSH0 REVERT JUMPDEST PUSH2 0x171C DUP3 PUSH2 0x1408 JUMP JUMPDEST DUP2 ADD DUP2 DUP2 LT PUSH8 0xFFFFFFFFFFFFFFFF DUP3 GT OR ISZERO PUSH2 0x173B JUMPI PUSH2 0x173A PUSH2 0x16E6 JUMP JUMPDEST JUMPDEST DUP1 PUSH1 0x40 MSTORE POP POP POP JUMP JUMPDEST PUSH0 PUSH2 0x174D PUSH2 0x1330 JUMP JUMPDEST SWAP1 POP PUSH2 0x1759 DUP3 DUP3 PUSH2 0x1713 JUMP JUMPDEST SWAP2 SWAP1 POP JUMP JUMPDEST PUSH0 PUSH8 0xFFFFFFFFFFFFFFFF DUP3 GT ISZERO PUSH2 0x1778 JUMPI PUSH2 0x1777 PUSH2 0x16E6 JUMP JUMPDEST JUMPDEST PUSH2 0x1781 DUP3 PUSH2 0x1408 JUMP JUMPDEST SWAP1 POP PUSH1 0x20 DUP2 ADD SWAP1 POP SWAP2 SWAP1 POP JUMP JUMPDEST DUP3 DUP2 DUP4 CALLDATACOPY PUSH0 DUP4 DUP4 ADD MSTORE POP POP POP JUMP JUMPDEST PUSH0 PUSH2 0x17AE PUSH2 0x17A9 DUP5 PUSH2 0x175E JUMP JUMPDEST PUSH2 0x1744 JUMP JUMPDEST SWAP1 POP DUP3 DUP2 MSTORE PUSH1 0x20 DUP2 ADD DUP5 DUP5 DUP5 ADD GT ISZERO PUSH2 0x17CA JUMPI PUSH2 0x17C9 PUSH2 0x16E2 JUMP JUMPDEST JUMPDEST PUSH2 0x17D5 DUP5 DUP3 DUP6 PUSH2 0x178E JUMP JUMPDEST POP SWAP4 SWAP3 POP POP POP JUMP JUMPDEST PUSH0 DUP3 PUSH1 0x1F DUP4 ADD SLT PUSH2 0x17F1 JUMPI PUSH2 0x17F0 PUSH2 0x16DE JUMP JUMPDEST JUMPDEST DUP2 CALLDATALOAD PUSH2 0x1801 DUP5 DUP3 PUSH1 0x20 DUP7 ADD PUSH2 0x179C JUMP JUMPDEST SWAP2 POP POP SWAP3 SWAP2 POP POP JUMP JUMPDEST PUSH0 DUP1 PUSH0 PUSH1 0x60 DUP5 DUP7 SUB SLT ISZERO PUSH2 0x1821 JUMPI PUSH2 0x1820 PUSH2 0x1339 JUMP JUMPDEST JUMPDEST PUSH0 DUP5 ADD CALLDATALOAD PUSH8 0xFFFFFFFFFFFFFFFF DUP2 GT ISZERO PUSH2 0x183E JUMPI PUSH2 0x183D PUSH2 0x133D JUMP JUMPDEST JUMPDEST PUSH2 0x184A DUP7 DUP3 DUP8 ADD PUSH2 0x17DD JUMP JUMPDEST SWAP4 POP POP PUSH1 0x20 DUP5 ADD CALLDATALOAD PUSH8 0xFFFFFFFFFFFFFFFF DUP2 GT ISZERO PUSH2 0x186B JUMPI PUSH2 0x186A PUSH2 0x133D JUMP JUMPDEST JUMPDEST PUSH2 0x1877 DUP7 DUP3 DUP8 ADD PUSH2 0x17DD JUMP JUMPDEST SWAP3 POP POP PUSH1 0x40 PUSH2 0x1888 DUP7 DUP3 DUP8 ADD PUSH2 0x1387 JUMP JUMPDEST SWAP2 POP POP SWAP3 POP SWAP3 POP SWAP3 JUMP JUMPDEST PUSH0 DUP2 MLOAD SWAP1 POP SWAP2 SWAP1 POP JUMP JUMPDEST PUSH0 DUP3 DUP3 MSTORE PUSH1 0x20 DUP3 ADD SWAP1 POP SWAP3 SWAP2 POP POP JUMP JUMPDEST PUSH0 DUP2 SWAP1 POP PUSH1 0x20 DUP3 ADD SWAP1 POP SWAP2 SWAP1 POP JUMP JUMPDEST PUSH0 PUSH2 0x18C6 DUP4 DUP4 PUSH2 0x1532 JUMP JUMPDEST SWAP1 POP SWAP3 SWAP2 POP POP JUMP JUMPDEST PUSH0 PUSH1 0x20 DUP3 ADD SWAP1 POP SWAP2 SWAP1 POP JUMP JUMPDEST PUSH0 PUSH2 0x18E4 DUP3 PUSH2 0x1892 JUMP JUMPDEST PUSH2 0x18EE DUP2 DUP6 PUSH2 0x189C JUMP JUMPDEST SWAP4 POP DUP4 PUSH1 0x20 DUP3 MUL DUP6 ADD PUSH2 0x1900 DUP6 PUSH2 0x18AC JUMP JUMPDEST DUP1 PUSH0 JUMPDEST DUP6 DUP2 LT ISZERO PUSH2 0x193B JUMPI DUP5 DUP5 SUB DUP10 MSTORE DUP2 MLOAD PUSH2 0x191C DUP6 DUP3 PUSH2 0x18BB JUMP JUMPDEST SWAP5 POP PUSH2 0x1927 DUP4 PUSH2 0x18CE JUMP JUMPDEST SWAP3 POP PUSH1 0x20 DUP11 ADD SWAP10 POP POP PUSH1 0x1 DUP2 ADD SWAP1 POP PUSH2 0x1903 JUMP JUMPDEST POP DUP3 SWAP8 POP DUP8 SWAP6 POP POP POP POP POP POP SWAP3 SWAP2 POP POP JUMP JUMPDEST PUSH0 DUP2 MLOAD SWAP1 POP SWAP2 SWAP1 POP JUMP JUMPDEST PUSH0 DUP3 DUP3 MSTORE PUSH1 0x20 DUP3 ADD SWAP1 POP SWAP3 SWAP2 POP POP JUMP JUMPDEST PUSH0 DUP2 SWAP1 POP PUSH1 0x20 DUP3 ADD SWAP1 POP SWAP2 SWAP1 POP JUMP JUMPDEST PUSH0 PUSH1 0xFF DUP3 AND SWAP1 POP SWAP2 SWAP1 POP JUMP JUMPDEST PUSH2 0x198B DUP2 PUSH2 0x1976 JUMP JUMPDEST DUP3 MSTORE POP POP JUMP JUMPDEST PUSH0 PUSH2 0x199C DUP4 DUP4 PUSH2 0x1982 JUMP JUMPDEST PUSH1 0x20 DUP4 ADD SWAP1 POP SWAP3 SWAP2 POP POP JUMP JUMPDEST PUSH0 PUSH1 0x20 DUP3 ADD SWAP1 POP SWAP2 SWAP1 POP JUMP JUMPDEST PUSH0 PUSH2 0x19BE DUP3 PUSH2 0x194D JUMP JUMPDEST PUSH2 0x19C8 DUP2 DUP6 PUSH2 0x1957 JUMP JUMPDEST SWAP4 POP PUSH2 0x19D3 DUP4 PUSH2 0x1967 JUMP JUMPDEST DUP1 PUSH0 JUMPDEST DUP4 DUP2 LT ISZERO PUSH2 0x1A03 JUMPI DUP2 MLOAD PUSH2 0x19EA DUP9 DUP3 PUSH2 0x1991 JUMP JUMPDEST SWAP8 POP PUSH2 0x19F5 DUP4 PUSH2 0x19A8 JUMP JUMPDEST SWAP3 POP POP PUSH1 0x1 DUP2 ADD SWAP1 POP PUSH2 0x19D6 JUMP JUMPDEST POP DUP6 SWAP4 POP POP POP POP SWAP3 SWAP2 POP POP JUMP JUMPDEST PUSH0 PUSH1 0xC0 DUP3 ADD SWAP1 POP DUP2 DUP2 SUB PUSH0 DUP4 ADD MSTORE PUSH2 0x1A28 DUP2 DUP10 PUSH2 0x1418 JUMP JUMPDEST SWAP1 POP DUP2 DUP2 SUB PUSH1 0x20 DUP4 ADD MSTORE PUSH2 0x1A3C DUP2 DUP9 PUSH2 0x1418 JUMP JUMPDEST SWAP1 POP DUP2 DUP2 SUB PUSH1 0x40 DUP4 ADD MSTORE PUSH2 0x1A50 DUP2 DUP8 PUSH2 0x1418 JUMP JUMPDEST SWAP1 POP DUP2 DUP2 SUB PUSH1 0x60 DUP4 ADD MSTORE PUSH2 0x1A64 DUP2 DUP7 PUSH2 0x1579 JUMP JUMPDEST SWAP1 POP DUP2 DUP2 SUB PUSH1 0x80 DUP4 ADD MSTORE PUSH2 0x1A78 DUP2 DUP6 PUSH2 0x18DA JUMP JUMPDEST SWAP1 POP DUP2 DUP2 SUB PUSH1 0xA0 DUP4 ADD MSTORE PUSH2 0x1A8C DUP2 DUP5 PUSH2 0x19B4 JUMP JUMPDEST SWAP1 POP SWAP8 SWAP7 POP POP POP POP POP POP POP JUMP JUMPDEST PUSH0 PUSH8 0xFFFFFFFFFFFFFFFF DUP3 GT ISZERO PUSH2 0x1AB3 JUMPI PUSH2 0x1AB2 PUSH2 0x16E6 JUMP JUMPDEST JUMPDEST PUSH1 0x20 DUP3 MUL SWAP1 POP PUSH1 0x20 DUP2 ADD SWAP1 POP SWAP2 SWAP1 POP JUMP JUMPDEST PUSH0 DUP1 REVERT JUMPDEST PUSH0 PUSH2 0x1ADA PUSH2 0x1AD5 DUP5 PUSH2 0x1A99 JUMP JUMPDEST PUSH2 0x1744 JUMP JUMPDEST SWAP1 POP DUP1 DUP4 DUP3 MSTORE PUSH1 0x20 DUP3 ADD SWAP1 POP PUSH1 0x20 DUP5 MUL DUP4 ADD DUP6 DUP2 GT ISZERO PUSH2 0x1AFD JUMPI PUSH2 0x1AFC PUSH2 0x1AC4 JUMP JUMPDEST JUMPDEST DUP4 JUMPDEST DUP2 DUP2 LT ISZERO PUSH2 0x1B44 JUMPI DUP1 CALLDATALOAD PUSH8 0xFFFFFFFFFFFFFFFF DUP2 GT ISZERO PUSH2 0x1B22 JUMPI PUSH2 0x1B21 PUSH2 0x16DE JUMP JUMPDEST JUMPDEST DUP1 DUP7 ADD PUSH2 0x1B2F DUP10 DUP3 PUSH2 0x17DD JUMP JUMPDEST DUP6 MSTORE PUSH1 0x20 DUP6 ADD SWAP5 POP POP POP PUSH1 0x20 DUP2 ADD SWAP1 POP PUSH2 0x1AFF JUMP JUMPDEST POP POP POP SWAP4 SWAP3 POP POP POP JUMP JUMPDEST PUSH0 DUP3 PUSH1 0x1F DUP4 ADD SLT PUSH2 0x1B62 JUMPI PUSH2 0x1B61 PUSH2 0x16DE JUMP JUMPDEST JUMPDEST DUP2 CALLDATALOAD PUSH2 0x1B72 DUP5 DUP3 PUSH1 0x20 DUP7 ADD PUSH2 0x1AC8 JUMP JUMPDEST SWAP2 POP POP SWAP3 SWAP2 POP POP JUMP JUMPDEST PUSH0 PUSH8 0xFFFFFFFFFFFFFFFF DUP3 GT ISZERO PUSH2 0x1B95 JUMPI PUSH2 0x1B94 PUSH2 0x16E6 JUMP JUMPDEST JUMPDEST PUSH1 0x20 DUP3 MUL SWAP1 POP PUSH1 0x20 DUP2 ADD SWAP1 POP SWAP2 SWAP1 POP JUMP JUMPDEST PUSH2 0x1BAF DUP2 PUSH2 0x1976 JUMP JUMPDEST DUP2 EQ PUSH2 0x1BB9 JUMPI PUSH0 DUP1 REVERT JUMPDEST POP JUMP JUMPDEST PUSH0 DUP2 CALLDATALOAD SWAP1 POP PUSH2 0x1BCA DUP2 PUSH2 0x1BA6 JUMP JUMPDEST SWAP3 SWAP2 POP POP JUMP JUMPDEST PUSH0 PUSH2 0x1BE2 PUSH2 0x1BDD DUP5 PUSH2 0x1B7B JUMP JUMPDEST PUSH2 0x1744 JUMP JUMPDEST SWAP1 POP DUP1 DUP4 DUP3 MSTORE PUSH1 0x20 DUP3 ADD SWAP1 POP PUSH1 0x20 DUP5 MUL DUP4 ADD DUP6 DUP2 GT ISZERO PUSH2 0x1C05 JUMPI PUSH2 0x1C04 PUSH2 0x1AC4 JUMP JUMPDEST JUMPDEST DUP4 JUMPDEST DUP2 DUP2 LT ISZERO PUSH2 0x1C2E JUMPI DUP1 PUSH2 0x1C1A DUP9 DUP3 PUSH2 0x1BBC JUMP JUMPDEST DUP5 MSTORE PUSH1 0x20 DUP5 ADD SWAP4 POP POP PUSH1 0x20 DUP2 ADD SWAP1 POP PUSH2 0x1C07 JUMP JUMPDEST POP POP POP SWAP4 SWAP3 POP POP POP JUMP JUMPDEST PUSH0 DUP3 PUSH1 0x1F DUP4 ADD SLT PUSH2 0x1C4C JUMPI PUSH2 0x1C4B PUSH2 0x16DE JUMP JUMPDEST JUMPDEST DUP2 CALLDATALOAD PUSH2 0x1C5C DUP5 DUP3 PUSH1 0x20 DUP7 ADD PUSH2 0x1BD0 JUMP JUMPDEST SWAP2 POP POP SWAP3 SWAP2 POP POP JUMP JUMPDEST PUSH0 DUP1 PUSH0 DUP1 PUSH1 0x80 DUP6 DUP8 SUB SLT ISZERO PUSH2 0x1C7D JUMPI PUSH2 0x1C7C PUSH2 0x1339 JUMP JUMPDEST JUMPDEST PUSH0 DUP6 ADD CALLDATALOAD PUSH8 0xFFFFFFFFFFFFFFFF DUP2 GT ISZERO PUSH2 0x1C9A JUMPI PUSH2 0x1C99 PUSH2 0x133D JUMP JUMPDEST JUMPDEST PUSH2 0x1CA6 DUP8 DUP3 DUP9 ADD PUSH2 0x17DD JUMP JUMPDEST SWAP5 POP POP PUSH1 0x20 DUP6 ADD CALLDATALOAD PUSH8 0xFFFFFFFFFFFFFFFF DUP2 GT ISZERO PUSH2 0x1CC7 JUMPI PUSH2 0x1CC6 PUSH2 0x133D JUMP JUMPDEST JUMPDEST PUSH2 0x1CD3 DUP8 DUP3 DUP9 ADD PUSH2 0x17DD JUMP JUMPDEST SWAP4 POP POP PUSH1 0x40 DUP6 ADD CALLDATALOAD PUSH8 0xFFFFFFFFFFFFFFFF DUP2 GT ISZERO PUSH2 0x1CF4 JUMPI PUSH2 0x1CF3 PUSH2 0x133D JUMP JUMPDEST JUMPDEST PUSH2 0x1D00 DUP8 DUP3 DUP9 ADD PUSH2 0x1B4E JUMP JUMPDEST SWAP3 POP POP PUSH1 0x60 DUP6 ADD CALLDATALOAD PUSH8 0xFFFFFFFFFFFFFFFF DUP2 GT ISZERO PUSH2 0x1D21 JUMPI PUSH2 0x1D20 PUSH2 0x133D JUMP JUMPDEST JUMPDEST PUSH2 0x1D2D DUP8 DUP3 DUP9 ADD PUSH2 0x1C38 JUMP JUMPDEST SWAP2 POP POP SWAP3 SWAP6 SWAP2 SWAP5 POP SWAP3 POP JUMP JUMPDEST PUSH32 0x4E487B7100000000000000000000000000000000000000000000000000000000 PUSH0 MSTORE PUSH1 0x22 PUSH1 0x4 MSTORE PUSH1 0x24 PUSH0 REVERT JUMPDEST PUSH0 PUSH1 0x2 DUP3 DIV SWAP1 POP PUSH1 0x1 DUP3 AND DUP1 PUSH2 0x1D7D JUMPI PUSH1 0x7F DUP3 AND SWAP2 POP JUMPDEST PUSH1 0x20 DUP3 LT DUP2 SUB PUSH2 0x1D90 JUMPI PUSH2 0x1D8F PUSH2 0x1D39 JUMP JUMPDEST JUMPDEST POP SWAP2 SWAP1 POP JUMP JUMPDEST PUSH32 0x53616D6F20766C61736E696B206D6F7A652070726973747570697469206F766F PUSH0 DUP3 ADD MSTORE PUSH32 0x6A2066756E6B63696A6900000000000000000000000000000000000000000000 PUSH1 0x20 DUP3 ADD MSTORE POP JUMP JUMPDEST PUSH0 PUSH2 0x1DF0 PUSH1 0x2A DUP4 PUSH2 0x13D0 JUMP JUMPDEST SWAP2 POP PUSH2 0x1DFB DUP3 PUSH2 0x1D96 JUMP JUMPDEST PUSH1 0x40 DUP3 ADD SWAP1 POP SWAP2 SWAP1 POP JUMP JUMPDEST PUSH0 PUSH1 0x20 DUP3 ADD SWAP1 POP DUP2 DUP2 SUB PUSH0 DUP4 ADD MSTORE PUSH2 0x1E1D DUP2 PUSH2 0x1DE4 JUMP JUMPDEST SWAP1 POP SWAP2 SWAP1 POP JUMP JUMPDEST PUSH32 0x4E6576617A65636120616472657361206E6F766F6720766C61736E696B610000 PUSH0 DUP3 ADD MSTORE POP JUMP JUMPDEST PUSH0 PUSH2 0x1E58 PUSH1 0x1E DUP4 PUSH2 0x13D0 JUMP JUMPDEST SWAP2 POP PUSH2 0x1E63 DUP3 PUSH2 0x1E24 JUMP JUMPDEST PUSH1 0x20 DUP3 ADD SWAP1 POP SWAP2 SWAP1 POP JUMP JUMPDEST PUSH0 PUSH1 0x20 DUP3 ADD SWAP1 POP DUP2 DUP2 SUB PUSH0 DUP4 ADD MSTORE PUSH2 0x1E85 DUP2 PUSH2 0x1E4C JUMP JUMPDEST SWAP1 POP SWAP2 SWAP1 POP JUMP JUMPDEST PUSH0 DUP2 SWAP1 POP DUP2 PUSH0 MSTORE PUSH1 0x20 PUSH0 KECCAK256 SWAP1 POP SWAP2 SWAP1 POP JUMP JUMPDEST PUSH0 PUSH1 0x20 PUSH1 0x1F DUP4 ADD DIV SWAP1 POP SWAP2 SWAP1 POP JUMP JUMPDEST PUSH0 DUP3 DUP3 SHL SWAP1 POP SWAP3 SWAP2 POP POP JUMP JUMPDEST PUSH0 PUSH1 0x8 DUP4 MUL PUSH2 0x1EE8 PUSH32 0xFFFFFFFFFFFFFFFFFFFFFFFFFFFFFFFFFFFFFFFFFFFFFFFFFFFFFFFFFFFFFFFF DUP3 PUSH2 0x1EAD JUMP JUMPDEST PUSH2 0x1EF2 DUP7 DUP4 PUSH2 0x1EAD JUMP JUMPDEST SWAP6 POP DUP1 NOT DUP5 AND SWAP4 POP DUP1 DUP7 AND DUP5 OR SWAP3 POP POP POP SWAP4 SWAP3 POP POP POP JUMP JUMPDEST PUSH0 DUP2 SWAP1 POP SWAP2 SWAP1 POP JUMP JUMPDEST PUSH0 PUSH2 0x1F2D PUSH2 0x1F28 PUSH2 0x1F23 DUP5 PUSH2 0x1645 JUMP JUMPDEST PUSH2 0x1F0A JUMP JUMPDEST PUSH2 0x1645 JUMP JUMPDEST SWAP1 POP SWAP2 SWAP1 POP JUMP JUMPDEST PUSH0 DUP2 SWAP1 POP SWAP2 SWAP1 POP JUMP JUMPDEST PUSH2 0x1F46 DUP4 PUSH2 0x1F13 JUMP JUMPDEST PUSH2 0x1F5A PUSH2 0x1F52 DUP3 PUSH2 0x1F34 JUMP JUMPDEST DUP5 DUP5 SLOAD PUSH2 0x1EB9 JUMP JUMPDEST DUP3 SSTORE POP POP POP POP JUMP JUMPDEST PUSH0 SWAP1 JUMP JUMPDEST PUSH2 0x1F6E PUSH2 0x1F62 JUMP JUMPDEST PUSH2 0x1F79 DUP2 DUP5 DUP5 PUSH2 0x1F3D JUMP JUMPDEST POP POP POP JUMP JUMPDEST JUMPDEST DUP2 DUP2 LT ISZERO PUSH2 0x1F9C JUMPI PUSH2 0x1F91 PUSH0 DUP3 PUSH2 0x1F66 JUMP JUMPDEST PUSH1 0x1 DUP2 ADD SWAP1 POP PUSH2 0x1F7F JUMP JUMPDEST POP POP JUMP JUMPDEST PUSH1 0x1F DUP3 GT ISZERO PUSH2 0x1FE1 JUMPI PUSH2 0x1FB2 DUP2 PUSH2 0x1E8C JUMP JUMPDEST PUSH2 0x1FBB DUP5 PUSH2 0x1E9E JUMP JUMPDEST DUP2 ADD PUSH1 0x20 DUP6 LT ISZERO PUSH2 0x1FCA JUMPI DUP2 SWAP1 POP JUMPDEST PUSH2 0x1FDE PUSH2 0x1FD6 DUP6 PUSH2 0x1E9E JUMP JUMPDEST DUP4 ADD DUP3 PUSH2 0x1F7E JUMP JUMPDEST POP POP JUMPDEST POP POP POP JUMP JUMPDEST PUSH0 DUP3 DUP3 SHR SWAP1 POP SWAP3 SWAP2 POP POP JUMP JUMPDEST PUSH0 PUSH2 0x2001 PUSH0 NOT DUP5 PUSH1 0x8 MUL PUSH2 0x1FE6 JUMP JUMPDEST NOT DUP1 DUP4 AND SWAP2 POP POP SWAP3 SWAP2 POP POP JUMP JUMPDEST PUSH0 PUSH2 0x2019 DUP4 DUP4 PUSH2 0x1FF2 JUMP JUMPDEST SWAP2 POP DUP3 PUSH1 0x2 MUL DUP3 OR SWAP1 POP SWAP3 SWAP2 POP POP JUMP JUMPDEST PUSH2 0x2032 DUP3 PUSH2 0x13C6 JUMP JUMPDEST PUSH8 0xFFFFFFFFFFFFFFFF DUP2 GT ISZERO PUSH2 0x204B JUMPI PUSH2 0x204A PUSH2 0x16E6 JUMP JUMPDEST JUMPDEST PUSH2 0x2055 DUP3 SLOAD PUSH2 0x1D66 JUMP JUMPDEST PUSH2 0x2060 DUP3 DUP3 DUP6 PUSH2 0x1FA0 JUMP JUMPDEST PUSH0 PUSH1 0x20 SWAP1 POP PUSH1 0x1F DUP4 GT PUSH1 0x1 DUP2 EQ PUSH2 0x2091 JUMPI PUSH0 DUP5 ISZERO PUSH2 0x207F JUMPI DUP3 DUP8 ADD MLOAD SWAP1 POP JUMPDEST PUSH2 0x2089 DUP6 DUP3 PUSH2 0x200E JUMP JUMPDEST DUP7 SSTORE POP PUSH2 0x20F0 JUMP JUMPDEST PUSH1 0x1F NOT DUP5 AND PUSH2 0x209F DUP7 PUSH2 0x1E8C JUMP JUMPDEST PUSH0 JUMPDEST DUP3 DUP2 LT ISZERO PUSH2 0x20C6 JUMPI DUP5 DUP10 ADD MLOAD DUP3 SSTORE PUSH1 0x1 DUP3 ADD SWAP2 POP PUSH1 0x20 DUP6 ADD SWAP5 POP PUSH1 0x20 DUP2 ADD SWAP1 POP PUSH2 0x20A1 JUMP JUMPDEST DUP7 DUP4 LT ISZERO PUSH2 0x20E3 JUMPI DUP5 DUP10 ADD MLOAD PUSH2 0x20DF PUSH1 0x1F DUP10 AND DUP3 PUSH2 0x1FF2 JUMP JUMPDEST DUP4 SSTORE POP JUMPDEST PUSH1 0x1 PUSH1 0x2 DUP9 MUL ADD DUP9 SSTORE POP POP POP JUMPDEST POP POP POP POP POP POP JUMP JUMPDEST PUSH0 PUSH1 0x40 DUP3 ADD SWAP1 POP DUP2 DUP2 SUB PUSH0 DUP4 ADD MSTORE PUSH2 0x2110 DUP2 DUP6 PUSH2 0x1418 JUMP JUMPDEST SWAP1 POP DUP2 DUP2 SUB PUSH1 0x20 DUP4 ADD MSTORE PUSH2 0x2124 DUP2 DUP5 PUSH2 0x1418 JUMP JUMPDEST SWAP1 POP SWAP4 SWAP3 POP POP POP JUMP JUMPDEST PUSH32 0x4E65697370726176616E20756E6F733A20707265646D6574692069206F636A65 PUSH0 DUP3 ADD MSTORE PUSH32 0x6E65206D6F72616A7520696D61746920697374752064757A696E750000000000 PUSH1 0x20 DUP3 ADD MSTORE POP JUMP JUMPDEST PUSH0 PUSH2 0x2187 PUSH1 0x3B DUP4 PUSH2 0x13D0 JUMP JUMPDEST SWAP2 POP PUSH2 0x2192 DUP3 PUSH2 0x212D JUMP JUMPDEST PUSH1 0x40 DUP3 ADD SWAP1 POP SWAP2 SWAP1 POP JUMP JUMPDEST PUSH0 PUSH1 0x20 DUP3 ADD SWAP1 POP DUP2 DUP2 SUB PUSH0 DUP4 ADD MSTORE PUSH2 0x21B4 DUP2 PUSH2 0x217B JUMP JUMPDEST SWAP1 POP SWAP2 SWAP1 POP JUMP JUMPDEST PUSH0 DUP2 SLOAD SWAP1 POP PUSH2 0x21C9 DUP2 PUSH2 0x1D66 JUMP JUMPDEST SWAP1 POP SWAP2 SWAP1 POP JUMP JUMPDEST PUSH0 DUP2 SWAP1 POP DUP2 PUSH0 MSTORE PUSH1 0x20 PUSH0 KECCAK256 SWAP1 POP SWAP2 SWAP1 POP JUMP JUMPDEST DUP2 DUP2 SUB PUSH2 0x21F0 JUMPI POP POP PUSH2 0x22C5 JUMP JUMPDEST PUSH2 0x21F9 DUP3 PUSH2 0x21BB JUMP JUMPDEST PUSH8 0xFFFFFFFFFFFFFFFF DUP2 GT ISZERO PUSH2 0x2212 JUMPI PUSH2 0x2211 PUSH2 0x16E6 JUMP JUMPDEST JUMPDEST PUSH2 0x221C DUP3 SLOAD PUSH2 0x1D66 JUMP JUMPDEST PUSH2 0x2227 DUP3 DUP3 DUP6 PUSH2 0x1FA0 JUMP JUMPDEST PUSH0 PUSH1 0x1F DUP4 GT PUSH1 0x1 DUP2 EQ PUSH2 0x2254 JUMPI PUSH0 DUP5 ISZERO PUSH2 0x2242 JUMPI DUP3 DUP8 ADD SLOAD SWAP1 POP JUMPDEST PUSH2 0x224C DUP6 DUP3 PUSH2 0x200E JUMP JUMPDEST DUP7 SSTORE POP PUSH2 0x22BE JUMP JUMPDEST PUSH1 0x1F NOT DUP5 AND PUSH2 0x2262 DUP8 PUSH2 0x21D0 JUMP JUMPDEST SWAP7 POP PUSH2 0x226D DUP7 PUSH2 0x1E8C JUMP JUMPDEST PUSH0 JUMPDEST DUP3 DUP2 LT ISZERO PUSH2 0x2294 JUMPI DUP5 DUP10 ADD SLOAD DUP3 SSTORE PUSH1 0x1 DUP3 ADD SWAP2 POP PUSH1 0x1 DUP6 ADD SWAP5 POP PUSH1 0x20 DUP2 ADD SWAP1 POP PUSH2 0x226F JUMP JUMPDEST DUP7 DUP4 LT ISZERO PUSH2 0x22B1 JUMPI DUP5 DUP10 ADD SLOAD PUSH2 0x22AD PUSH1 0x1F DUP10 AND DUP3 PUSH2 0x1FF2 JUMP JUMPDEST DUP4 SSTORE POP JUMPDEST PUSH1 0x1 PUSH1 0x2 DUP9 MUL ADD DUP9 SSTORE POP POP POP JUMPDEST POP POP POP POP POP POP JUMPDEST JUMP JUMPDEST PUSH0 DUP2 SLOAD SWAP1 POP PUSH2 0x22D5 DUP2 PUSH2 0x1D66 JUMP JUMPDEST SWAP1 POP SWAP2 SWAP1 POP JUMP JUMPDEST DUP2 DUP2 SUB PUSH2 0x22EA JUMPI POP POP PUSH2 0x23BF JUMP JUMPDEST PUSH2 0x22F3 DUP3 PUSH2 0x22C7 JUMP JUMPDEST PUSH8 0xFFFFFFFFFFFFFFFF DUP2 GT ISZERO PUSH2 0x230C JUMPI PUSH2 0x230B PUSH2 0x16E6 JUMP JUMPDEST JUMPDEST PUSH2 0x2316 DUP3 SLOAD PUSH2 0x1D66 JUMP JUMPDEST PUSH2 0x2321 DUP3 DUP3 DUP6 PUSH2 0x1FA0 JUMP JUMPDEST PUSH0 PUSH1 0x1F DUP4 GT PUSH1 0x1 DUP2 EQ PUSH2 0x234E JUMPI PUSH0 DUP5 ISZERO PUSH2 0x233C JUMPI DUP3 DUP8 ADD SLOAD SWAP1 POP JUMPDEST PUSH2 0x2346 DUP6 DUP3 PUSH2 0x200E JUMP JUMPDEST DUP7 SSTORE POP PUSH2 0x23B8 JUMP JUMPDEST PUSH1 0x1F NOT DUP5 AND PUSH2 0x235C DUP8 PUSH2 0x1E8C JUMP JUMPDEST SWAP7 POP PUSH2 0x2367 DUP7 PUSH2 0x1E8C JUMP JUMPDEST PUSH0 JUMPDEST DUP3 DUP2 LT ISZERO PUSH2 0x238E JUMPI DUP5 DUP10 ADD SLOAD DUP3 SSTORE PUSH1 0x1 DUP3 ADD SWAP2 POP PUSH1 0x1 DUP6 ADD SWAP5 POP PUSH1 0x20 DUP2 ADD SWAP1 POP PUSH2 0x2369 JUMP JUMPDEST DUP7 DUP4 LT ISZERO PUSH2 0x23AB JUMPI DUP5 DUP10 ADD SLOAD PUSH2 0x23A7 PUSH1 0x1F DUP10 AND DUP3 PUSH2 0x1FF2 JUMP JUMPDEST DUP4 SSTORE POP JUMPDEST PUSH1 0x1 PUSH1 0x2 DUP9 MUL ADD DUP9 SSTORE POP POP POP JUMPDEST POP POP POP POP POP POP JUMPDEST JUMP JUMPDEST PUSH0 PUSH1 0x80 DUP3 ADD SWAP1 POP DUP2 DUP2 SUB PUSH0 DUP4 ADD MSTORE PUSH2 0x23D9 DUP2 DUP8 PUSH2 0x1418 JUMP JUMPDEST SWAP1 POP DUP2 DUP2 SUB PUSH1 0x20 DUP4 ADD MSTORE PUSH2 0x23ED DUP2 DUP7 PUSH2 0x1418 JUMP JUMPDEST SWAP1 POP DUP2 DUP2 SUB PUSH1 0x40 DUP4 ADD MSTORE PUSH2 0x2401 DUP2 DUP6 PUSH2 0x18DA JUMP JUMPDEST SWAP1 POP DUP2 DUP2 SUB PUSH1 0x60 DUP4 ADD MSTORE PUSH2 0x2415 DUP2 DUP5 PUSH2 0x19B4 JUMP JUMPDEST SWAP1 POP SWAP6 SWAP5 POP POP POP POP POP JUMP JUMPDEST PUSH0 DUP2 SWAP1 POP SWAP2 SWAP1 POP JUMP JUMPDEST PUSH2 0x243A PUSH2 0x2435 DUP3 PUSH2 0x1645 JUMP JUMPDEST PUSH2 0x2420 JUMP JUMPDEST DUP3 MSTORE POP POP JUMP JUMPDEST PUSH0 DUP2 PUSH1 0x60 SHL SWAP1 POP SWAP2 SWAP1 POP JUMP JUMPDEST PUSH0 PUSH2 0x2456 DUP3 PUSH2 0x2440 JUMP JUMPDEST SWAP1 POP SWAP2 SWAP1 POP JUMP JUMPDEST PUSH0 PUSH2 0x2467 DUP3 PUSH2 0x244C JUMP JUMPDEST SWAP1 POP SWAP2 SWAP1 POP JUMP JUMPDEST PUSH2 0x247F PUSH2 0x247A DUP3 PUSH2 0x1360 JUMP JUMPDEST PUSH2 0x245D JUMP JUMPDEST DUP3 MSTORE POP POP JUMP JUMPDEST PUSH0 PUSH2 0x2490 DUP3 DUP7 PUSH2 0x2429 JUMP JUMPDEST PUSH1 0x20 DUP3 ADD SWAP2 POP PUSH2 0x24A0 DUP3 DUP6 PUSH2 0x2429 JUMP JUMPDEST PUSH1 0x20 DUP3 ADD SWAP2 POP PUSH2 0x24B0 DUP3 DUP5 PUSH2 0x246E JUMP JUMPDEST PUSH1 0x14 DUP3 ADD SWAP2 POP DUP2 SWAP1 POP SWAP5 SWAP4 POP POP POP POP JUMP INVALID LOG2 PUSH5 0x6970667358 0x22 SLT KECCAK256 0xE3 0xAA 0xF7 GAS DUP4 JUMPDEST BYTE 0x25 0xC5 DUP2 PUSH10 0xA16316B23CB86E5BB863 0x4E 0x25 0xF8 GASPRICE 0xDE MSTORE ADD 0xBD SWAP3 LOG0 0xE7 PUSH5 0x736F6C6343 STOP ADDMOD XOR STOP CALLER "
		},
		"gasEstimates": {
			"creation": {
				"codeDepositCost": "1892600",
				"executionCost": "26261",
				"totalCost": "1918861"
			},
			"external": {
				"dodajRavnatelja(string,string,address)": "infinite",
				"dohvatiUvjerenje(bytes8)": "infinite",
				"izdajUvjerenje(string,string,string[],uint8[])": "infinite",
				"prenesiVlasnistvo(address)": "26982",
				"ravnateljUvjerenja(address,uint256)": "6825",
				"ravnatelji(address)": "infinite",
				"uvjerenja(bytes8)": "infinite",
				"vlasnik()": "2550"
			},
			"internal": {
				"generisiUniqueId()": "infinite"
			}
		},
		"methodIdentifiers": {
			"dodajRavnatelja(string,string,address)": "6cad746f",
			"dohvatiUvjerenje(bytes8)": "d22f44b7",
			"izdajUvjerenje(string,string,string[],uint8[])": "d6febb18",
			"prenesiVlasnistvo(address)": "3107b2fb",
			"ravnateljUvjerenja(address,uint256)": "565972f6",
			"ravnatelji(address)": "077feeaa",
			"uvjerenja(bytes8)": "10046c91",
			"vlasnik()": "261baa5a"
		}
	},
	"abi": [
		{
			"inputs": [],
			"stateMutability": "nonpayable",
			"type": "constructor"
		},
		{
			"anonymous": false,
			"inputs": [
				{
					"indexed": true,
					"internalType": "address",
					"name": "adresa",
					"type": "address"
				},
				{
					"indexed": false,
					"internalType": "string",
					"name": "ime",
					"type": "string"
				},
				{
					"indexed": false,
					"internalType": "string",
					"name": "imeSkole",
					"type": "string"
				},
				{
					"indexed": true,
					"internalType": "address",
					"name": "idRavnatelja",
					"type": "address"
				}
			],
			"name": "RavnateljDodan",
			"type": "event"
		},
		{
			"anonymous": false,
			"inputs": [
				{
					"indexed": true,
					"internalType": "address",
					"name": "adresa",
					"type": "address"
				},
				{
					"indexed": true,
					"internalType": "bytes8",
					"name": "id",
					"type": "bytes8"
				},
				{
					"indexed": false,
					"internalType": "string",
					"name": "imeNositelja",
					"type": "string"
				},
				{
					"indexed": false,
					"internalType": "string",
					"name": "opis",
					"type": "string"
				},
				{
					"indexed": false,
					"internalType": "string[]",
					"name": "predmeti",
					"type": "string[]"
				},
				{
					"indexed": false,
					"internalType": "uint8[]",
					"name": "ocjene",
					"type": "uint8[]"
				}
			],
			"name": "UvjerenjeIzdano",
			"type": "event"
		},
		{
			"inputs": [
				{
					"internalType": "string",
					"name": "ime",
					"type": "string"
				},
				{
					"internalType": "string",
					"name": "imeSkole",
					"type": "string"
				},
				{
					"internalType": "address",
					"name": "idRavnatelja",
					"type": "address"
				}
			],
			"name": "dodajRavnatelja",
			"outputs": [],
			"stateMutability": "nonpayable",
			"type": "function"
		},
		{
			"inputs": [
				{
					"internalType": "bytes8",
					"name": "id",
					"type": "bytes8"
				}
			],
			"name": "dohvatiUvjerenje",
			"outputs": [
				{
					"internalType": "string",
					"name": "imeNositelja",
					"type": "string"
				},
				{
					"internalType": "string",
					"name": "opis",
					"type": "string"
				},
				{
					"internalType": "string",
					"name": "imeSkole",
					"type": "string"
				},
				{
					"components": [
						{
							"internalType": "string",
							"name": "ime",
							"type": "string"
						},
						{
							"internalType": "string",
							"name": "imeSkole",
							"type": "string"
						},
						{
							"internalType": "address",
							"name": "idRavnatelja",
							"type": "address"
						}
					],
					"internalType": "struct UvjerenjeUgovor.Ravnatelj",
					"name": "ravnatelj",
					"type": "tuple"
				},
				{
					"internalType": "string[]",
					"name": "predmeti",
					"type": "string[]"
				},
				{
					"internalType": "uint8[]",
					"name": "ocjene",
					"type": "uint8[]"
				}
			],
			"stateMutability": "view",
			"type": "function"
		},
		{
			"inputs": [
				{
					"internalType": "string",
					"name": "imeNositelja",
					"type": "string"
				},
				{
					"internalType": "string",
					"name": "opis",
					"type": "string"
				},
				{
					"internalType": "string[]",
					"name": "predmeti",
					"type": "string[]"
				},
				{
					"internalType": "uint8[]",
					"name": "ocjene",
					"type": "uint8[]"
				}
			],
			"name": "izdajUvjerenje",
			"outputs": [],
			"stateMutability": "nonpayable",
			"type": "function"
		},
		{
			"inputs": [
				{
					"internalType": "address",
					"name": "noviVlasnik",
					"type": "address"
				}
			],
			"name": "prenesiVlasnistvo",
			"outputs": [],
			"stateMutability": "nonpayable",
			"type": "function"
		},
		{
			"inputs": [
				{
					"internalType": "address",
					"name": "",
					"type": "address"
				},
				{
					"internalType": "uint256",
					"name": "",
					"type": "uint256"
				}
			],
			"name": "ravnateljUvjerenja",
			"outputs": [
				{
					"internalType": "bytes8",
					"name": "",
					"type": "bytes8"
				}
			],
			"stateMutability": "view",
			"type": "function"
		},
		{
			"inputs": [
				{
					"internalType": "address",
					"name": "",
					"type": "address"
				}
			],
			"name": "ravnatelji",
			"outputs": [
				{
					"internalType": "string",
					"name": "ime",
					"type": "string"
				},
				{
					"internalType": "string",
					"name": "imeSkole",
					"type": "string"
				},
				{
					"internalType": "address",
					"name": "idRavnatelja",
					"type": "address"
				}
			],
			"stateMutability": "view",
			"type": "function"
		},
		{
			"inputs": [
				{
					"internalType": "bytes8",
					"name": "",
					"type": "bytes8"
				}
			],
			"name": "uvjerenja",
			"outputs": [
				{
					"internalType": "string",
					"name": "imeNositelja",
					"type": "string"
				},
				{
					"internalType": "string",
					"name": "opis",
					"type": "string"
				},
				{
					"internalType": "string",
					"name": "imeSkole",
					"type": "string"
				},
				{
					"components": [
						{
							"internalType": "string",
							"name": "ime",
							"type": "string"
						},
						{
							"internalType": "string",
							"name": "imeSkole",
							"type": "string"
						},
						{
							"internalType": "address",
							"name": "idRavnatelja",
							"type": "address"
						}
					],
					"internalType": "struct UvjerenjeUgovor.Ravnatelj",
					"name": "ravnatelj",
					"type": "tuple"
				}
			],
			"stateMutability": "view",
			"type": "function"
		},
		{
			"inputs": [],
			"name": "vlasnik",
			"outputs": [
				{
					"internalType": "address",
					"name": "",
					"type": "address"
				}
			],
			"stateMutability": "view",
			"type": "function"
		}
	]
}